:020000040800F2
:10000000800500209D010008D51400084114000857
:10001000D114000825030008452000080000000056
:10002000000000000000000000000000D9140008DB
:100030002903000800000000D7140008DB140008A2
:1000400049200008B7010008B7010008B7010008FF
:10005000B7010008B7010008B7010008B7010008A0
:10006000B7010008B7010008B7010008B701000890
:10007000B7010008B7010008B7010008B701000880
:10008000B7010008B7010008B7010008B701000870
:10009000B7010008B7010008B7010008B701000860
:1000A000B7010008B7010008B7010008B701000850
:1000B000B7010008B7010008B7010008B701000840
:1000C000B7010008B7010008B7010008B701000830
:1000D000B7010008FD1F0008B7010008B7010008BC
:1000E000B7010008B7010008B7010008B701000810
:1000F000B7010008B7010008B7010008B701000800
:10010000B7010008B7010008B7010008B7010008EF
:10011000B7010008B7010008B7010008B7010008DF
:10012000B7010008B7010008B7010008B7010008CF
:10013000B7010008B7010008B7010008B7010008BF
:10014000B7010008B7010008B7010008B7010008AF
:10015000B7010008B7010008B7010008B70100089F
:10016000B7010008B7010008B7010008B70100088F
:10017000B7010008B7010008B7010008000000003F
:10018000B7010008B7010008DFF80CD000F07EF8D6
:10019000004800479D22000880050020064880474F
:1001A00006480047FEE7FEE7FEE7FEE7FEE7FEE75C
:1001B000FEE7FEE7FEE7FEE7C51500088901000837
:1001C0002DE9F05F0546002092469B46884606468C
:1001D000814640241BE0284641464746224600F01F
:1001E00045F853465A46C01A914110D31146184655
:1001F000224600F02CF82D1A67EB01084F462246E4
:100200000120002100F023F817EB00094E41201EC9
:10021000A4F10104DFDC484631462A464346BDE8E6
:10022000F09F30B50B46014600202022012409E052
:1002300021FA02F59D4205D303FA02F5491B04FA9F
:1002400002F52844151EA2F10102F1DC30BD202A7E
:1002500004DB203A00FA02F1002070479140C2F11D
:10026000200320FA03F3194390407047202A04DB4F
:10027000203A21FA02F00021704721FA02F3D0401F
:10028000C2F120029140084319467047064C074DC1
:1002900006E0E06840F0010394E807009847103456
:1002A000AC42F6D3FFF774FF4C2300086C23000820
:1002B00000B587B000BF002001901048006840F0F2
:1002C00020000E4908600846006800F020000190F8
:1002D00000BF00BF88150290012003900490032006
:1002E000059002A9064800F035F800224FF480710D
:1002F000034800F02FF907B000BD0000303802407D
:100300000014024010B5012004490860502001F09B
:1003100089FF00200249C1F8A00210BDA08242421C
:100320000080424200BFFEE77047014691F8350069
:10033000022803D08020486501207047052081F8FD
:1003400035000868006820F001000A68106000208D
:10035000F3E70000F8B502460B4600250024002014
:100360000021DCE0012606FA01F51E6806EA050414
:10037000AC4273D15E68012E08D05E68022E05D0B3
:100380005E68112E02D05E68122E13D190684F0065
:100390000326BE40B0434F00DE68BE40304390604D
:1003A000506801268E40B0431E79C6F300168E4079
:1003B00030435060D0684F000326BE40B0434F002A
:1003C0009E68BE403043D0605E68022E02D05E68F8
:1003D000122E13D1CF0802F1200656F827004E073F
:1003E000F70E0F26BE40B0434F07FF0E1E69BE40FA
:1003F0003043CF0802F1200646F8270010684F006E
:100400000326BE40B0431E7906F003064F00BE40EF
:10041000304310605E6806F08056B6F1805F7DD193
:1004200000BF00260096404E366846F480463E4F98
:100430003E603E46366806F48046009600BF00BF28
:100440003A4E8F0856F827008E07370F0F26BE400A
:10045000B043374EB24202D1002624E05EE0354E72
:10046000B24201D101261EE0334EB24201D1022632
:1004700019E0324EB24201D1032614E0304EB242AE
:1004800001D104260FE02F4EB24201D105260AE029
:100490002D4EB24201D1062605E02C4EB24201D1CA
:1004A000072600E008268F073F0FBE4030431F4E4F
:1004B0008F0846F82700264E3068A0435E6806F491
:1004C0008036B6F5803F00D12043214E3060361D86
:1004D0003068A0435E6806F40036B6F5003F00D1F0
:1004E00020431B4E361D3060361D3068A0435E68C9
:1004F00006F48016B6F5801F00D12043144E08364E
:100500003060361D3068A0435E6806F40016B6F50C
:10051000001F00D120430E4E0C363060491C1029BC
:10052000FFF420AFF8BD0000443802400838014015
:10053000000002400004024000080240000C02409B
:10054000001002400014024000180240001C02404B
:10055000003C01400AB1816101E00B0483617047F6
:1005600001480068000C7047002004E00148006862
:100570007047000004000020034800680349097820
:100580000844014908607047040000200C00002066
:1005900010B50D48006840F400700B49086008462B
:1005A000006840F4806008600846006840F480708D
:1005B0000860052000F080F80F2000F007F800F038
:1005C0002BF8002010BD0000003C024070B504462E
:1005D0000E4800784FF47A71B1FBF0F00C490968CD
:1005E000B1FBF0F5284600F013FC08B1012070BD06
:1005F000102C07D200222146501E00F01EF805489C
:10060000046001E00120F2E70020F0E70C00002088
:10061000000000200800002070470146084600281E
:1006200009DB00F01F0301229A4043099B0003F1FC
:10063000E023C3F8002100BF70472DE9F05F80463A
:100640000D461646002701F017FD074639462A4693
:10065000334601F00700C0F1070ABAF1040F02D9CE
:100660004FF0040A01E0C0F1070AD14600F1040A84
:10067000BAF1070F02D24FF0000A01E0A0F1030A1D
:10068000D4464FF0010A0AFA09FAAAF1010A0AEA65
:10069000020A0AFA0CFA4FF0010B0BFA0CFBABF151
:1006A000010B0BEA030B4AEA0B042146404601F01A
:1006B000EBFCBDE8F09F000000BF00F00702064B16
:1006C00019684FF6FF031940044B0B4343EA02211C
:1006D000014B196000BF70470CED00E00000FA0507
:1006E00070B504460D460CB9012070BD584800682D
:1006F00000F00F00A84209D255490D700846006865
:1007000000F00F00A84201D00120EEE7207800F0B1
:10071000020002281DD1207800F00400042805D131
:100720004C48006840F4E0504A490860207800F0E6
:100730000800082805D14748006840F46040454952
:1007400008604448006820F0F000A168084341496F
:100750000860207800F00100A8B36068012807D184
:100760003C4808380068C0F34040B8B90120BCE7F5
:100770006068022802D06068032807D1354808382D
:100780000068C0F3406048B90120AEE7314808383E
:100790000068C0F3400008B90120A6E72D480068B2
:1007A00020F00300616808432A490860FFF7DEFE75
:1007B000064609E0FFF7DAFE801B41F288318842E5
:1007C00002D9032091E707E02248006800F00C00FE
:1007D0006168B0EB810FEDD11D48006800F00F009B
:1007E000A84209D91A490D700846006800F00F00A8
:1007F000A84201D0012078E7207800F00400042806
:1008000007D11448006820F4E050E168084311491A
:100810000860207800F00800082808D10D4800681A
:1008200020F46040216940EAC1000A49086000F0F4
:100830003FF808490968C1F30311074A515CC840F1
:100840000649086006480068FFF7C0FE00204CE734
:10085000003C024008380240342300080000002019
:1008600008000020014800687047000000000020D8
:1008700000B5FFF7F7FF04490968C1F38221034A75
:10088000515CC84000BD0000083802404423000805
:1008900000B5FFF7E7FF04490968C1F34231034A95
:1008A000515CC84000BD00000838024044230008E5
:1008B0002DE9F047002400250026A14625480068C0
:1008C00000F00C0020B1042805D008283AD105E03A
:1008D000DFF8849039E0DFF8849036E01D48001F8F
:1008E000006800F03F041B48001F006800F480000F
:1008F00078B11A481749091F0968C1F38811A0FB8C
:1009000001700146224600233846FFF759FC054690
:100910000EE011480F49091F0968C1F38811A0FBB7
:1009200001700146224600233846FFF749FC054680
:100930000848001F0068C0F30140401C4600B5FB9A
:10094000F6F902E0DFF8109000BF00BF4846BDE8AE
:10095000F0870000083802400024F40000127A00FA
:10096000F8B504460CB90120F8BD207800F001006C
:10097000002874D0F948006800F00C0004280DD05D
:10098000F648006800F00C00082813D1F348001F57
:10099000006800F48000B0F5800F0BD1EF480838F4
:1009A0000068C0F34040002859D06068002856D144
:1009B0000120D9E700BF6068B0F5803F08D1E74863
:1009C0000838006840F48030E449083908601EE0C7
:1009D0006068B0F5A02F0DD1E0480838006840F4F9
:1009E0008020DE49083908600846006840F48030FD
:1009F00008600CE0D9480838006820F48030D749F6
:100A0000083908600846006820F48020086000BFAC
:100A1000606890B1FFF7AAFD054606E0FFF7A6FD66
:100A2000401B642801D903209EE7CC4808380068A1
:100A3000C0F340400028F1D011E0FFF797FD0546D4
:100A400006E0FFF793FD401B642801D903208BE7E4
:100A5000C24808380068C0F340400028F1D120782F
:100A600000F0020002285FD1BC48006800F00C00D2
:100A700058B1BA48006800F00C0008281CD1B748EB
:100A8000001F006800F48000B0B9B448083800685E
:100A9000C0F3400020B1E068012801D0012063E7E5
:100AA000AE480838006820F0F800216940EAC1002B
:100AB000AA490839086037E0E06800B30120A84976
:100AC0000860FFF753FD054606E0FFF74FFD401BAA
:100AD000022801D9032047E7A04808380068C0F37E
:100AE00040000028F1D09D480838006820F0F80048
:100AF000216940EAC10099490839086014E00020E2
:100B000097490860FFF732FD054606E0FFF72EFD26
:100B1000401B022801D9032026E7904808380068C6
:100B2000C0F340000028F1D1207800F00800082828
:100B30002CD16069A8B101208A490860FFF716FD31
:100B4000054606E0FFF712FD401B022801D90320ED
:100B50000AE782486C300068C0F340000028F1D0FA
:100B600014E000207F490860FFF700FD054606E01D
:100B7000FFF7FCFC401B022801D90320F4E677486C
:100B80006C300068C0F340000028F1D1207800F0FC
:100B90000400042870D1002770483830006800F045
:100BA000805090B900BF002000906C483830006839
:100BB00040F080506949383108600846006800F00C
:100BC0008050009000BF00BF01276748006800F414
:100BD0008070B0B96448006840F480706249086071
:100BE000FFF7C4FC054606E0FFF7C0FC401B0228E7
:100BF00001D90320B8E65C48006800F48070002842
:100C0000F2D000BFA068012808D1544868300068BD
:100C100040F001005149683108601DE0A0680528D6
:100C20000DD14E486830006840F004004B496831EF
:100C300008600846006840F0010008600CE0474882
:100C40006830006820F001004449683108600846B7
:100C5000006820F00400086000BFA068A8B1FFF79A
:100C600085FC054609E0FFF781FC401B41F2883115
:100C7000884202D9032077E626E0384868300068C9
:100C8000C0F340000028EED013E0FFF76FFC0546EC
:100C900008E0FFF76BFC401B41F28831884201D924
:100CA000032061E62D4868300068C0F3400000284A
:100CB000EFD1012F07D129483830006820F080504B
:100CC00026493831086000BFA069002845D0234874
:100CD000006800F00C0008285DD0A069022845D10A
:100CE00000201F490866FFF741FC054606E0FFF7B4
:100CF0003DFC401B022801D9032035E6174808387F
:100D00000068C0F340600028F1D1D4E9070108432E
:100D1000616A40EA81110122A06AC2EB500041EAF7
:100D200000412C20005D41EA00600C49091F086069
:100D300001200B490866FFF719FC054606E0FFF79E
:100D400015FC401B022801D903200DE60348083892
:100D50000068C0F340600028F1D03FE0083802404E
:100D600000004742800E47420070004000201C49AE
:100D70000866FFF7FBFB054606E0FFF7F7FB401BA5
:100D8000022801D90320EFE516480068C0F340604F
:100D90000028F2D122E0A069012800D1E4E5114841
:100DA000001D066806F48001E069814214D106F056
:100DB0003F01206A81420FD147F6C0703040616A1E
:100DC000884209D106F44031A06A814204D106F07C
:100DD0007061E06A814201D00120C5E50020C3E5D1
:100DE0000000474200380240042808D14FF0E021BB
:100DF000096941F004014FF0E022116107E04FF072
:100E0000E021096921F004014FF0E02211617047EF
:100E100070B504462546681EB0F1807F01D30120DD
:100E20000FE0681E4FF0E02148610F214FF0FF30C6
:100E300001F02AF900204FF0E021886107200861C5
:100E4000002070BD2DE9F04104460D46164600BF56
:100E500094F83C00012802D10220BDE8F081012075
:100E600084F83C0000BF022084F83D0096B9EB688E
:100E7000D5E90012206800F053FC2068806920F05A
:100E80000C002168886120688069A968084321688E
:100E900088613DE0042E13D1EB68D5E9001220688B
:100EA00000F086FC2068806920F440602168886139
:100EB00020688069A96840EA01202168886127E0EC
:100EC000082E12D1EB68D5E90012206800F08DFCE5
:100ED0002068C06920F00C002168C8612068C069E2
:100EE000A96808432168C86112E0EB68D5E90012DF
:100EF000206800F096FC2068C06920F440602168FA
:100F0000C8612068C069A96840EA01202168C861F9
:100F1000012084F83D0000BF002084F83C0000BFA1
:100F200000BF9AE710B504460CB9012010BD94F833
:100F30003D0028B9002084F83C00204600F00CF861
:100F4000022084F83D00211D206800F06BFB012089
:100F500084F83D000020E9E710B586B0044600BFE4
:100F6000002000901748006840F001001549086013
:100F70000846006800F00100009000BF00BF00BFFD
:100F8000002000900F481038006840F001000D4923
:100F9000103908600846006800F00100009000BFAA
:100FA00000BF202001900220029000200390032027
:100FB00004900120059001A90348FFF7CBF906B082
:100FC00010BD0000403802400000024070B50446E9
:100FD0000D4635B1042D0BD0082D10D00C2D1CD191
:100FE00014E02068C06840F002002168C86015E085
:100FF0002068C06840F004002168C8600EE02068E6
:10100000C06840F008002168C86007E02068C06838
:1010100040F010002168C86000E000BF00BF01225E
:101020002946206800F06AFB2068806800F0070607
:10103000062E05D02068006840F001002168086095
:10104000002070BD0246002031B1042907D00829D4
:1010500008D00C290CD108E01368586B09E013681C
:10106000986B06E01368D86B03E01368186C00E017
:1010700000BF00BF7047704701460022002391F86F
:10108000392091F83A3042EA030070472DE9F047E1
:101090000446206805682068C668206847694FF0E4
:1010A0000008C14605F00F08B8F1000F0AD105F09D
:1010B000200038B106F0200020B1204600F022FDCB
:1010C000BDE8F087B8F1000F72D007F0010018B941
:1010D00006F4907000286BD005F0010030B106F4E2
:1010E000807018B1E06B40F00100E06305F004008F
:1010F00030B107F0010018B1E06B40F00200E0638E
:1011000005F0020030B107F0010018B1E06B40F0CB
:101110000400E06305F0080048B106F0200010B9B3
:1011200007F0010018B1E06B40F00800E063E06BED
:1011300070B305F0200028B106F0200010B1204661
:1011400000F0E0FC20684069C0F38019E06B00F01B
:10115000080010B9B9F1000F23D0204600F0B2FC0E
:101160002068406900F04000402816D1206840699E
:1011700020F0400021684861606B50B11748616BF6
:101180000865606BFFF7D1F810B1606B016D88479F
:101190000CE02046FFF76FFF08E02046FFF76BFFEB
:1011A00004E02046FFF767FF0020E06388E7FFE7E1
:1011B00005F0800030B106F0800018B1204600F044
:1011C000E9FE7DE705F0400030B106F0400018B1BF
:1011D000204600F087FC73E700BF71E7B11A0008F2
:1011E00010B504460CB9012010BDA06900B100E0A3
:1011F00000BF94F8390028B9002084F83800204650
:1012000000F028F8242084F839002068C06820F411
:1012100000502168C860204600F0C8FC20680069C2
:1012200020F49040216808612068406920F02A007D
:10123000216848612068C06840F400502168C86097
:101240000020E063202084F8390084F83A00002070
:10125000CAE7000010B586B004461F4920688842DE
:1012600038D100BF002000901C48006840F0010009
:101270001A4908600846006800F00100009000BFAD
:1012800000BF00BF0020009014481430006840F0F8
:1012900010001249143108600846006800F0100080
:1012A000009000BF00BF4FF4C06001900220029088
:1012B00001200390022004900720059001A908480E
:1012C000FFF748F82520FFF7A8F90322114625204B
:1012D000FFF7B3F906B010BD0010014030380240EE
:1012E0000000024010B5034693F83A0020282FD1A1
:1012F00001B10AB9012010BD00BF93F838000128E0
:1013000001D10220F7E7012083F8380000BF99627D
:101310009A85DA850020D863222083F83A0000BF3E
:10132000002083F8380000BF1868C06840F480705F
:101330001C68E0601868406940F001001C6860614A
:101340001868C06840F020001C68E0600020D2E708
:101350000220D0E71D4A0168914236D11C49098814
:1013600001F4004189BB1A49098801F4804171B137
:10137000184909780A2903D00021154A118024E070
:101380001349098841F40041114A11801DE01149B7
:1013900009780D2906D10E49098841F480410C4A8B
:1013A000118012E00B490978094A1288C2F30D0234
:1013B000094B995406490988491C054A1180114670
:1013C0000988C72901DD0021118070470010014004
:1013D0001E0000201C000020B80000207047000004
:1013E00010B504464FF4167000F02AFF054800F0CF
:1013F00021F80548006808B9012000E000200249F2
:10140000086010BD24000020A882424210B50446A6
:1014100020684068C0F3402058B12068806800F020
:10142000010030B16FF00100216888602046FFF7AD
:10143000D7FF10BD01460A68C868106000207047D9
:1014400000BFFEE700B587B000BF002001901E4836
:10145000006840F020001C4908600846006800F061
:101460002000019000BF00BF00BF0020019008468F
:10147000006840F0200008600846006800F0200086
:10148000019000BF00BF4815029001200390049016
:101490000320059002A90D48FEF75CFF4FF4806021
:1014A00002900320059002A90848FEF753FF01228D
:1014B00051020648FFF74EF8012291020348FFF758
:1014C00049F807B000BD0000303802400014024067
:1014D00000BFFEE770477047704710B5FFF74CF844
:1014E00010BD000010B504460420FFF77DFC014844
:1014F000046010BD180000202DE9F04192B0804634
:101500000C4615461E46002700BF002000902A48C2
:10151000006840F08050284908600846006800F0E4
:101520008050009000BF00BF00BF00200090234803
:10153000006840F48040214908600846006800F4D3
:101540008040009000BF00BF01200690000407907B
:1015500002200C9041050D91CDF838800F94109524
:10156000119606A8FFF7FCF907460FB100BFFEE78A
:101570000F20019002200290002003904FF4A05011
:1015800004904FF480500590052101A8FFF7A8F8BA
:1015900007460FB100BFFEE7FEF7E2FF41F201018F
:1015A000884205D10648006840F48070044908600C
:1015B00012B0BDE8F08100004038024000700040E9
:1015C000003C02400548006840F470000349086090
:1015D0004FF00060014980390860704788ED00E0F5
:1015E0007FB505460C464FF080400D49086008461F
:1015F0004460C560002181600161FFF793FC002019
:1016000000900120019000200390002269460448C8
:10161000FFF718FC00210248FFF7D8FC7FBD00004F
:101620003800002010B50268294B98420ED0B0F166
:10163000804F0BD0274B984208D0274B984205D0BB
:10164000264B984202D0264B984203D122F07002DA
:101650004B681A431E4B984220D0B0F1804F1DD0EA
:101660001C4B98421AD01C4B984217D01B4B9842E7
:1016700014D01B4B984211D01A4B98420ED01A4BE3
:1016800098420BD0194B984208D0194B984205D07C
:10169000184B984202D0184B984203D122F4407262
:1016A000CB681A4322F080034C6943EA04020260CB
:1016B0008B68C3620B688362054B984202D0084B6B
:1016C000984201D10B6903630123436110BD0000FF
:1016D000000001400004004000080040000C0040F1
:1016E0000004014000400140004401400048014026
:1016F00000180040001C00400020004030B501F000
:101700001F05012404FA05F3046A9C430462046A79
:1017100001F01F0502FA05F52C43046230BD0000FC
:1017200070B50C461546066A26F001060662816908
:10173000026A184EB04214D0B0F1804F11D0164E4C
:10174000B0420ED0154EB0420BD0154EB04208D06C
:10175000144EB04205D0144EB04202D0134EB042E7
:1017600001D1012600E000261EB121F0030129432A
:1017700001E041F0010121F0F001F02606EA031634
:10178000314322F00A0204F00A0632438161026208
:1017900070BD00000000014000040040000800404F
:1017A000000C0040000401400040014000180040CF
:1017B00070B50C461546066A26F010060662816969
:1017C000026A21F4407141EA052121F470414FF48D
:1017D000704606EA0336314322F0A002A02606EA4C
:1017E000041632438161026270BD70B50C46154625
:1017F000066A26F480760662C169026A21F0030156
:10180000294321F0F001F02606EA0316314322F4C1
:1018100020624FF4206606EA04263243C161026268
:1018200070BD70B50C461546066A26F480560662F1
:10183000C169026A21F4407141EA052121F4704135
:101840004FF4704606EA0336314322F420424FF447
:10185000204606EA04363243C161026270BD70B5AB
:1018600006460024002505E000F00CF80446A542D9
:1018700000DA2546301EA6F10101CEB2F4D1284689
:1018800070BD000010B500F0C7F80AE00B48006812
:10189000406A10F5FA7F04D308480068406A80B2B5
:1018A00010BD064800680069C0F340000028EDD074
:1018B00000210248FFF7C6FB80B2F1E738000020A4
:1018C000F0B58BB007460024002500263946601E7F
:1018D000FFF786FE00BF06E0FFF7D4FF01A941F83D
:1018E0002400601CC4B20A2CF6DB00241DE0601C3E
:1018F000C5B216E001A850F8240001A951F825103E
:1019000088420CD901A830F8240086B201A850F80A
:10191000250001A941F8240001A840F82560681CB1
:10192000C5B20A2DE6DB601CC4B2092CDFDB002641
:10193000022406E001A830F82400304486B2601C7E
:10194000C4B2082CF6DB062096FBF0F008490860CC
:101950000846016807A000F07FFB05480068B0F169
:10196000004F02D301200BB0F0BD0020FBE70000C8
:1019700010000020746F7563685F64656661696C50
:10198000745F76616C3D25640D0A00002DE9F0411D
:101990000546032600273046FFF761FF04461DB1C8
:1019A000002013490870062612480068503084420F
:1019B00017D91048006800EB8000B4EB400F10D23C
:1019C0000B48007880B90B480068503084420BD92E
:1019D0000127012006490870214607A000F03CFBC2
:1019E00002E00020024908703846BDE8F08100009E
:1019F0001400002010000020B4A5C3FED3D0D0A74F
:101A0000A3ACB2B6BBF1B8DFB5E7C6BDD6B5CEAABA
:101A1000A3BA25640D0A000000B585B0202000900F
:101A20000120019002200290032003906946104893
:101A3000FEF790FC002220210D48FEF78BFD0520CB
:101A400000F0F0FB6FF003000A490968086100200C
:101A50000849096848620220019000200290012094
:101A6000049069460248FEF775FC05B000BD000011
:101A7000000002403800002010B5044609480A4919
:101A800008600846446000218160C1600161816195
:101A90000C214161FFF7A4FB012204490248FFF732
:101AA00021FC10BD00100140780000201C00002027
:101AB00070B50546AC6B0020E085E0842046FFF75A
:101AC000DAFA70BD0168C96821F490710268D160CA
:101AD0000168496921F0010102685161202180F803
:101AE0003A10704710B504462068C06820F04000E6
:101AF0002168C860202084F839002046FFF76EFC7A
:101B0000002010BD70B5044694F83A0022284AD14E
:101B1000A068B0F5805F13D1A56A206940B920683C
:101B20004068C0F308002880A06A801CA06219E009
:101B300020684068C0B22880A06A401CA06211E002
:101B4000206938B920684068C1B2A26A501CA062FE
:101B5000117007E02068406800F07F01A26A501C05
:101B6000A0621170E08D401E80B2E085C8B9206887
:101B7000C06820F020002168C8602068C06820F498
:101B800080702168C8602068406920F001002168E9
:101B90004861202084F83A002046FFF7DBFB002054
:101BA00070BD0020FCE70220FAE700002DE9F84FA5
:101BB00004462068006920F44050E1680843216829
:101BC00008612169A068084361690843E169084325
:101BD00000902068C06849F20C618843009908436E
:101BE0002168C8602068406920F44070A1690843FA
:101BF00021684861E069B0F5004F75D1E34920687C
:101C0000884203D0E249206888426FD1FEF740FE47
:101C1000814602206168A0FB01510B461920A9FBF7
:101C200000712A463846FEF7CBFA6421B0FBF1F08A
:101C30004FEA001A02206168A0FB01510B461920EF
:101C4000A9FB00712A463846FEF7BAFA0746022079
:101C50006168A0FB01510B461920A9FB00B12A467F
:101C60005846FEF7ADFA6421B0FBF1F000EBC0017D
:101C700001EB0010A7EB8000322101EBC0006421D2
:101C8000B0FBF1F000F0F8000AEB400A02206168B6
:101C9000A0FB01510B461920A9FB00712A463846CA
:101CA000FEF78EFA074602206168A0FB01510B4641
:101CB0001920A9FB00B12A465846FEF781FA642193
:101CC000B0FBF1F000EBC00101EB0010A7EB8000CE
:101CD000322101EBC0006421B0FBF1F000F00700FD
:101CE0005044216888604FE16EE0FFE7FEF7C0FDD9
:101CF000814602206168A0FB01510B461920A9FB17
:101D000000712A463846FEF75BFA6421B0FBF1F019
:101D10004FEA001A02206168A0FB01510B4619200E
:101D2000A9FB00712A463846FEF74AFA0746022008
:101D30006168A0FB01510B461920A9FB00B12A469E
:101D40005846FEF73DFA6421B0FBF1F000EBC0010C
:101D500001EB0010A7EB8000322101EBC0006421F1
:101D6000B0FBF1F000F0F8000AEB400A02206168D5
:101D7000A0FB01510B461920A9FB00712A463846E9
:101D8000FEF71EFA074602206168A0FB01500346D9
:101D90001920A9FB00B12A465846FEF711FA642122
:101DA000B0FBF1F000EBC00101EB0010A7EB8000ED
:101DB000322101EBC0006421B0FBF1F000F007001C
:101DC000504421688860DFE070492068884203D071
:101DD0006F49206888426BD1FEF75AFD8146042086
:101DE0006168A0FB01510B461920A9FB00712A462E
:101DF0003846FEF7E5F9824604206168A0FB0151F0
:101E00000B461920A9FB00712A463846FEF7D8F97F
:101E10006421B0FBF1F000EBC00101EB0010AAEB74
:101E20008000322101EB00106421B0FBF1F000F0E2
:101E3000F00A04206168A0FB015003461920A9FBA9
:101E400000712A463846FEF7BBF96421B0FBF1F079
:101E50000AEB001A04206168A0FB01510B4619200F
:101E6000A9FB00712A463846FEF7AAF90746042066
:101E70006168A0FB015003461920A9FB00B12A4666
:101E80005846FEF79DF96421B0FBF1F000EBC0016C
:101E900001EB0010A7EB8000322101EB0010642160
:101EA000B0FBF1F000F00F005044216888606BE057
:101EB000FEF7DEFC814604206168A0FB015003466A
:101EC0001920A9FB00712A463846FEF779F98246A7
:101ED00004206168A0FB015003461920A9FB007192
:101EE0002A463846FEF76CF96421B0FBF1F000EBAE
:101EF000C00101EB0010AAEB8000322101EB0010C1
:101F00006421B0FBF1F000F0F00A04206168A0FB4E
:101F1000015003461920A9FB00712A463846FEF7F6
:101F20004FF96421B0FBF1F00AEB001A042061685C
:101F3000A0FB017003461920A9FB005001463A4658
:101F40002846FEF73DF9074604206168A0FB0150D2
:101F500003461920A9FB00B12A465846FEF730F97E
:101F60006421B0FBF1F000EBC00101EB0010A7EB26
:101F70008000322101EB00106421B0FBF1F000F091
:101F80000F00504421688860BDE8F88F00100140C0
:101F900000140140014691F8390021282CD18868AD
:101FA000B0F5805F0FD10A6A1088C0F308000B6893
:101FB0005860086918B9086A801C086209E0086A54
:101FC000401C086205E00B6A581C086218780B6810
:101FD0005860C88C401E80B2C88458B90868C06870
:101FE00020F080000B68D8600868C06840F04000AE
:101FF0000B68D860002070470220FCE710B5002471
:102000000E48FFF743F800BF03E0641C601C00B9F2
:1020100004E00A48FFF730F82028F6D100BF00247A
:1020200003E0641C601C00B906E001220449034877
:10203000FFF758F90028F4D100BF10BD7800002048
:102040001C00002000BFFEE710B50248FFF7DEF9D4
:1020500010BD0000240000200FB4054B10B503A9EB
:10206000044A029800F034F810BC5DF814FB00003C
:10207000852200082000002002480068C0F30220EA
:10208000704700000CED00E010B5002804DB0A07E3
:10209000130E054A135406E00A07140E034A00F013
:1020A0000F031B1FD45410BD00E400E018ED00E046
:1020B00002E008C8121F08C1002AFAD17047704711
:1020C000002001E001C1121F002AFBD1704700006F
:1020D0002DE9FF4F89B09B460446002506E02528E0
:1020E0000BD05A460B999047641C6D1C2078002831
:1020F000F5D10DB02846BDE8F08F0027B846012283
:10210000474900E0074314F8013F203B02FA03F07F
:102110000842F7D120782E2819D114F8010F47F082
:1021200004072A280ED06FF02F022078A0F130018A
:1021300009290CD808EB880102EB410100EB0108EA
:10214000641CF2E70A98641C50F8048B0A9020780B
:102150000028CED0642808D0692806D075281ED063
:102160005A460B9990476D1C58E00A994FF00A099E
:1021700001C90A91002802DA40422D2102E0390506
:1021800004D52B218DF82010012103E0F90704D09C
:102190002021F7E78A4608AE0DE00021FAE70A9908
:1021A0004FF00A0901C90A91F7E74946FEF739F8E5
:1021B000303106F8011D0028F7D1ADEB060000F123
:1021C0002009780701D44FF00108C84502DDA8EBCB
:1021D000090000E000208046002706E008A85A46D3
:1021E000C05D0B9990476D1C7F1C5745F6DB04E0E2
:1021F00030205A460B9990476D1CB8F10001A8F1A8
:102200000108F5DC05E016F8010B5A460B999047DA
:102210006D1CB9F10001A9F10109F4DC641C65E74A
:102220000928010010B5044603E04FF47A7000F06D
:1022300007F8201EA4F101018CB2F6D110BD0000F8
:1022400070B5034600224FF0E026B569B1690C4E27
:10225000366803FB06F410E04FF0E026B0698142D7
:102260000BD0814202D90E1A324402E02E1A0E44DB
:1022700032440146A24200D300E0EDE700BF70BD4A
:102280001800002000BF044A126802F04002002A31
:10229000F9D0014A50607047001001400024FEF759
:1022A00077F9072302224FF4A8710820FFF724F9D9
:1022B000A820FFF717F9FFF7C5F8FDF7F9FF4FF46E
:1022C000E130FFF7D9FB15A0FFF7C6FE0420FFF7AA
:1022D000F7FA22E00020FFF759FB48B114480068E4
:1022E00008B9012000E0002011490860FEF70AF853
:1022F000601CC4B2142094FBF0F100FB114048B9FB
:102300000B48001F006808B9012000E000200849C0
:10231000091F08600A20FFF785FFDBE7B4A5C3FEAD
:10232000B0B4BCFCB2B6BBF1CAB5D1E90000000044
:10233000A8824242000000000000000001020304E5
:102340000607080900000000010203046C230008CE
:102350000000002024000000B020000890230008A6
:10236000240000205C050000C02000080024F400C8
:10237000000000001000000001000000000000004C
:10238000000000000000000000000000000000004D
:040000050800018965
:00000001FF
