:020000040800F2
:10000000800500209D0100080917000875160008EA
:100010000517000885020008812000080000000084
:100020000000000000000000000000000D170008A4
:1000300089020008000000000B1700080F170008D5
:1000400085200008B7010008B7010008B7010008C3
:10005000B7010008B7010008B7010008B7010008A0
:10006000B7010008B7010008B7010008B701000890
:10007000B7010008B7010008B7010008B701000880
:10008000B7010008B7010008B7010008B701000870
:10009000B7010008B7010008B7010008B701000860
:1000A000B7010008B7010008B7010008B701000850
:1000B000B7010008B7010008B7010008B701000840
:1000C000B7010008B7010008B7010008B701000830
:1000D000B701000839200008B7010008B70100087F
:1000E000B7010008B7010008B7010008B701000810
:1000F000B7010008B7010008B7010008B701000800
:10010000B7010008B701000869180008B701000826
:10011000B7010008B7010008B7010008B7010008DF
:10012000B7010008B7010008B7010008B7010008CF
:10013000B7010008B7010008B7010008B7010008BF
:10014000B7010008B7010008B7010008B7010008AF
:10015000B7010008B7010008B7010008B70100089F
:10016000B7010008B7010008B7010008B70100088F
:10017000B7010008B7010008B7010008000000003F
:10018000B7010008B7010008DFF80CD000F068F8EC
:1001900000480047B123000880050020064880473A
:1001A00006480047FEE7FEE7FEE7FEE7FEE7FEE75C
:1001B000FEE7FEE7FEE7FEE7F91700088901000801
:1001C0002DE9F05F0546002092469B46884606468C
:1001D000814640241BE0284641464746224600F01F
:1001E0002FF853465A46C01A914110D3114618466B
:1001F000224600F016F82D1A67EB01084F462246FA
:100200000120002100F00DF817EB00094E41201EDF
:10021000A4F10104DFDC484631462A464346BDE8E6
:10022000F09F202A04DB203A00FA02F100207047F8
:100230009140C2F1200320FA03F319439040704724
:10024000202A04DB203A21FA02F00021704721FA2B
:1002500002F3D040C2F12002914008431946704792
:10026000064C074D06E0E06840F0010394E8070003
:1002700098471034AC42F6D3FFF78AFFA824000851
:10028000C824000800BFFEE77047014691F835001A
:10029000022803D08020486501207047052081F89E
:1002A00035000868006820F001000A68106000202E
:1002B000F3E70000F8B502460B46002500240020B5
:1002C0000021DCE0012606FA01F51E6806EA0504B5
:1002D000AC4273D15E68012E08D05E68022E05D054
:1002E0005E68112E02D05E68122E13D190684F0006
:1002F0000326BE40B0434F00DE68BE4030439060EE
:10030000506801268E40B0431E79C6F300168E4019
:1003100030435060D0684F000326BE40B0434F00CA
:100320009E68BE403043D0605E68022E02D05E6898
:10033000122E13D1CF0802F1200656F827004E07DF
:10034000F70E0F26BE40B0434F07FF0E1E69BE409A
:100350003043CF0802F1200646F8270010684F000E
:100360000326BE40B0431E7906F003064F00BE4090
:10037000304310605E6806F08056B6F1805F7DD134
:1003800000BF00260096404E366846F480463E4F39
:100390003E603E46366806F48046009600BF00BFC9
:1003A0003A4E8F0856F827008E07370F0F26BE40AB
:1003B000B043374EB24202D1002624E05EE0354E13
:1003C000B24201D101261EE0334EB24201D10226D3
:1003D00019E0324EB24201D1032614E0304EB2424F
:1003E00001D104260FE02F4EB24201D105260AE0CA
:1003F0002D4EB24201D1062605E02C4EB24201D16B
:10040000072600E008268F073F0FBE4030431F4EEF
:100410008F0846F82700264E3068A0435E6806F431
:100420008036B6F5803F00D12043214E3060361D26
:100430003068A0435E6806F40036B6F5003F00D190
:1004400020431B4E361D3060361D3068A0435E6869
:1004500006F48016B6F5801F00D12043144E0836EE
:100460003060361D3068A0435E6806F40016B6F5AD
:10047000001F00D120430E4E0C363060491C10295D
:10048000FFF420AFF8BD00004438024008380140B6
:10049000000002400004024000080240000C02403C
:1004A000001002400014024000180240001C0240EC
:1004B000003C01400AB1816101E00B048361704797
:1004C00001480068000C7047002004E00148006803
:1004D00070470000040000200348006803490978C1
:1004E0000844014908607047040000200C00002007
:1004F00010B50D48006840F400700B4908600846CC
:10050000006840F4806008600846006840F480702D
:100510000860052000F080F80F2000F007F800F0D8
:100520002BF8002010BD0000003C024070B50446CE
:100530000E4800784FF47A71B1FBF0F00C4909686D
:10054000B1FBF0F5284600F013FC08B1012070BDA6
:10055000102C07D200222146501E00F01EF805483C
:10056000046001E00120F2E70020F0E70C00002029
:1005700000000020080000207047014608460028BF
:1005800009DB00F01F0301229A4043099B0003F19D
:10059000E023C3F8002100BF70472DE9F05F8046DB
:1005A0000D461646002701F085FD074639462A46C6
:1005B000334601F00700C0F1070ABAF1040F02D96F
:1005C0004FF0040A01E0C0F1070AD14600F1040A25
:1005D000BAF1070F02D24FF0000A01E0A0F1030ABE
:1005E000D4464FF0010A0AFA09FAAAF1010A0AEA06
:1005F000020A0AFA0CFA4FF0010B0BFA0CFBABF1F2
:10060000010B0BEA030B4AEA0B042146404601F0BA
:1006100059FDBDE8F09F000000BF00F00702064B47
:1006200019684FF6FF031940044B0B4343EA0221BC
:10063000014B196000BF70470CED00E00000FA05A7
:1006400070B504460D460CB9012070BD58480068CD
:1006500000F00F00A84209D255490D700846006805
:1006600000F00F00A84201D00120EEE7207800F052
:10067000020002281DD1207800F00400042805D1D2
:100680004C48006840F4E0504A490860207800F087
:100690000800082805D14748006840F460404549F3
:1006A00008604448006820F0F000A1680843414910
:1006B0000860207800F00100A8B36068012807D125
:1006C0003C4808380068C0F34040B8B90120BCE796
:1006D0006068022802D06068032807D135480838CE
:1006E0000068C0F3406048B90120AEE731480838DF
:1006F0000068C0F3400008B90120A6E72D48006853
:1007000020F00300616808432A490860FFF7DEFE15
:10071000064609E0FFF7DAFE801B41F28831884285
:1007200002D9032091E707E02248006800F00C009E
:100730006168B0EB810FEDD11D48006800F00F003B
:10074000A84209D91A490D700846006800F00F0048
:10075000A84201D0012078E7207800F004000428A6
:1007600007D11448006820F4E050E16808431149BB
:100770000860207800F00800082808D10D480068BB
:1007800020F46040216940EAC1000A49086000F095
:100790003FF808490968C1F30311074A515CC84092
:1007A0000649086006480068FFF7C0FE00204CE7D5
:1007B000003C02400838024090240008000000205D
:1007C0000800002001480068704700000000002079
:1007D00000B5FFF7F7FF04490968C1F38221034A16
:1007E000515CC84000BD000008380240A024000849
:1007F00000B5FFF7E7FF04490968C1F34231034A36
:10080000515CC84000BD000008380240A024000828
:100810002DE9F047002400250026A1462548006860
:1008200000F00C0020B1042805D008283AD105E0DA
:10083000DFF8849039E0DFF8849036E01D48001F2F
:10084000006800F03F041B48001F006800F48000AF
:1008500078B11A481749091F0968C1F38811A0FB2C
:1008600001700146224600233846FFF7A9FC0546E1
:100870000EE011480F49091F0968C1F38811A0FB58
:1008800001700146224600233846FFF799FC0546D1
:100890000848001F0068C0F30140401C4600B5FB3B
:1008A000F6F902E0DFF8109000BF00BF4846BDE84F
:1008B000F0870000083802400024F40000127A009B
:1008C000F8B504460CB90120F8BD207800F001000D
:1008D000002874D0F948006800F00C0004280DD0FE
:1008E000F648006800F00C00082813D1F348001FF8
:1008F000006800F48000B0F5800F0BD1EF48083895
:100900000068C0F34040002859D06068002856D1E4
:100910000120D9E700BF6068B0F5803F08D1E74803
:100920000838006840F48030E449083908601EE067
:100930006068B0F5A02F0DD1E0480838006840F499
:100940008020DE49083908600846006840F480309D
:1009500008600CE0D9480838006820F48030D74996
:10096000083908600846006820F48020086000BF4D
:10097000606890B1FFF7AAFD054606E0FFF7A6FD07
:10098000401B642801D903209EE7CC480838006842
:10099000C0F340400028F1D011E0FFF797FD054675
:1009A00006E0FFF793FD401B642801D903208BE785
:1009B000C24808380068C0F340400028F1D12078D0
:1009C00000F0020002285FD1BC48006800F00C0073
:1009D00058B1BA48006800F00C0008281CD1B7488C
:1009E000001F006800F48000B0B9B44808380068FF
:1009F000C0F3400020B1E068012801D0012063E786
:100A0000AE480838006820F0F800216940EAC100CB
:100A1000AA490839086037E0E06800B30120A84916
:100A20000860FFF753FD054606E0FFF74FFD401B4A
:100A3000022801D9032047E7A04808380068C0F31E
:100A400040000028F1D09D480838006820F0F800E8
:100A5000216940EAC10099490839086014E0002082
:100A600097490860FFF732FD054606E0FFF72EFDC7
:100A7000401B022801D9032026E790480838006867
:100A8000C0F340000028F1D1207800F008000828C9
:100A90002CD16069A8B101208A490860FFF716FDD2
:100AA000054606E0FFF712FD401B022801D903208E
:100AB0000AE782486C300068C0F340000028F1D09B
:100AC00014E000207F490860FFF700FD054606E0BE
:100AD000FFF7FCFC401B022801D90320F4E677480D
:100AE0006C300068C0F340000028F1D1207800F09D
:100AF0000400042870D1002770483830006800F0E6
:100B0000805090B900BF002000906C4838300068D9
:100B100040F080506949383108600846006800F0AC
:100B20008050009000BF00BF01276748006800F4B4
:100B30008070B0B96448006840F480706249086011
:100B4000FFF7C4FC054606E0FFF7C0FC401B022887
:100B500001D90320B8E65C48006800F480700028E2
:100B6000F2D000BFA068012808D15448683000685E
:100B700040F001005149683108601DE0A068052877
:100B80000DD14E486830006840F004004B49683190
:100B900008600846006840F0010008600CE0474823
:100BA0006830006820F00100444968310860084658
:100BB000006820F00400086000BFA068A8B1FFF73B
:100BC00085FC054609E0FFF781FC401B41F28831B6
:100BD000884202D9032077E626E03848683000686A
:100BE000C0F340000028EED013E0FFF76FFC05468D
:100BF00008E0FFF76BFC401B41F28831884201D9C5
:100C0000032061E62D4868300068C0F340000028EA
:100C1000EFD1012F07D129483830006820F08050EB
:100C200026493831086000BFA069002845D0234814
:100C3000006800F00C0008285DD0A069022845D1AA
:100C400000201F490866FFF741FC054606E0FFF754
:100C50003DFC401B022801D9032035E6174808381F
:100C60000068C0F340600028F1D1D4E907010843CF
:100C7000616A40EA81110122A06AC2EB500041EA98
:100C800000412C20005D41EA00600C49091F08600A
:100C900001200B490866FFF719FC054606E0FFF73F
:100CA00015FC401B022801D903200DE60348083833
:100CB0000068C0F340600028F1D03FE008380240EF
:100CC00000004742800E47420070004000201C494F
:100CD0000866FFF7FBFB054606E0FFF7F7FB401B46
:100CE000022801D90320EFE516480068C0F34060F0
:100CF0000028F2D122E0A069012800D1E4E51148E2
:100D0000001D066806F48001E069814214D106F0F6
:100D10003F01206A81420FD147F6C0703040616ABE
:100D2000884209D106F44031A06A814204D106F01C
:100D30007061E06A814201D00120C5E50020C3E571
:100D40000000474200380240042808D14FF0E0215B
:100D5000096941F004014FF0E022116107E04FF012
:100D6000E021096921F004014FF0E0221161704790
:100D700070B504462546681EB0F1807F01D301207E
:100D80000FE0681E4FF0E02148610F214FF0FF3067
:100D900001F098F900204FF0E021886107200861F8
:100DA000002070BD7047704710B504463248007887
:100DB00000F0800000285DD12F48007800F040004E
:100DC000D0B12D48007840F080002B4908700021F8
:100DD0002A4800F04FFA2A49086028480068006A4B
:100DE00020F00A0025490968086224480068006A62
:100DF0002249096808623DE000201F490870204927
:100E000008601D48007840F040001B49087000BF92
:100E10001A480068006A41F21111084068B9174881
:100E20000068006A8910084038B9144800680068F2
:100E300020F0010011490968086000BF00200F4937
:100E4000096848620D480068006A20F00A000B49F2
:100E50000968086209480068006A40F00200074912
:100E60000968086205480068006840F0010003490D
:100E70000968086010BD0000100000203800002044
:100E8000140000202DE9F04104460D46164600BF2F
:100E900094F83C00012802D10220BDE8F081012035
:100EA00084F83C0000BF022084F83D0096B9EB684E
:100EB000D5E90012206800F05DFD2068806920F00F
:100EC0000C002168886120688069A968084321684E
:100ED00088613DE0042E13D1EB68D5E9001220684B
:100EE00000F090FD2068806920F4406021688861EE
:100EF00020688069A96840EA01202168886127E0AC
:100F0000082E12D1EB68D5E90012206800F097FD99
:100F10002068C06920F00C002168C8612068C069A1
:100F2000A96808432168C86112E0EB68D5E900129E
:100F3000206800F0A0FD2068C06920F440602168AE
:100F4000C8612068C069A96840EA01202168C861B9
:100F5000012084F83D0000BF002084F83C0000BF61
:100F600000BF9AE710B504460CB9012010BD94F8F3
:100F70003D0028B9002084F83C00204600F00CF821
:100F8000022084F83D00211D206800F075FC01203E
:100F900084F83D000020E9E710B586B0044600BFA4
:100FA000002000901A48006840F0080018490860C6
:100FB0000846006800F00800009000BF00BF00BFB6
:100FC0000020009012481038006840F001001049DD
:100FD000103908600846006800F00100009000BF6A
:100FE00000BF012001900220029003900320049092
:100FF0000220059001A90748FFF75CF900220221B1
:101000003220FFF7CAFA3220FFF7B7FA06B010BD58
:10101000403802400000024070B504460D4635B12C
:10102000042D0BD0082D10D00C2D1CD114E02068FD
:10103000C06840F002002168C86015E02068C06800
:1010400040F004002168C8600EE02068C06840F0ED
:1010500008002168C86007E02068C06840F0100000
:101060002168C86000E000BF00BF01222946206857
:1010700000F06EFC2068806800F00706062E05D0A0
:101080002068006840F0010021680860002070BD01
:1010900010B5044620680069C0F34000D8B120684C
:1010A000C068C0F34000B0B16FF002002168086171
:1010B000012020772068806900F0030018B12046E5
:1010C000FFF772FE05E0204600F0ADF8204600F084
:1010D000ABF80020207720680069C0F38000D8B109
:1010E0002068C068C0F38000B0B16FF004002168D0
:1010F0000861022020772068806900F4407018B1F0
:101100002046FFF751FE05E0204600F08CF820460F
:1011100000F08AF80020207720680069C0F3C00042
:10112000D8B12068C068C0F3C000B0B16FF008004B
:1011300021680861042020772068C06900F003005E
:1011400018B12046FFF730FE05E0204600F06BF8AE
:10115000204600F069F80020207720680069C0F37D
:101160000010D8B12068C068C0F30010B0B16FF0B3
:10117000100021680861082020772068C06900F409
:10118000407018B12046FFF70FFE05E0204600F042
:101190004AF8204600F048F80020207720680069CF
:1011A00000F0010058B12068C06800F0010030B1C3
:1011B0006FF0010021680861204600F037F82068D0
:1011C0000069C0F3C01058B12068C068C0F3C010F7
:1011D00030B16FF08000216808612046FFF7E2FD22
:1011E00020680069C0F3801058B12068C068C0F35F
:1011F000801030B16FF0400021680861204600F097
:1012000052F820680069C0F3401058B12068C068E7
:10121000C0F3401030B16FF0200021680861204613
:10122000FFF7C1FD10BD7047704700000F490978F6
:1012300001F08001C9B90D49097801F04001A1B15F
:101240000B49097801F03F013F2909D10749097885
:1012500041F08001054A11704FF0FF31044A1160DE
:1012600003490968491C024A1160704710000020B8
:10127000140000200246002031B1042907D00829BB
:1012800008D00C290CD108E01368586B09E01368EA
:10129000986B06E01368D86B03E01368186C00E0E5
:1012A00000BF00BF7047704770470146002200230F
:1012B00091F8392091F83A3042EA03007047000073
:1012C0002DE9F0470446206805682068C668206854
:1012D00047694FF00008C14605F00F08B8F1000F4C
:1012E0000AD105F0200038B106F0200020B12046D8
:1012F00000F026FCBDE8F087B8F1000F72D007F0CF
:10130000010018B906F4907000286BD005F00100B8
:1013100030B106F4807018B1E06B40F00100E0637A
:1013200005F0040030B107F0010018B1E06B40F0A7
:101330000200E06305F0020030B107F0010018B1CF
:10134000E06B40F00400E06305F0080048B106F0EF
:10135000200010B907F0010018B1E06B40F0080060
:10136000E063E06B70B305F0200028B106F02000C8
:1013700010B1204600F0E4FB20684069C0F38019FA
:10138000E06B00F0080010B9B9F1000F23D020463F
:1013900000F0B6FB2068406900F04000402816D1FC
:1013A0002068406920F0400021684861606B50B1BE
:1013B0001748616B0865606BFEF767FF10B1606BE3
:1013C000016D88470CE02046FFF76EFF08E02046DD
:1013D000FFF76AFF04E02046FFF766FF0020E063A6
:1013E00088E7FFE705F0800030B106F0800018B113
:1013F000204600F0EDFD7DE705F0400030B106F03D
:10140000400018B1204600F08BFB73E700BF71E786
:10141000ED1A000810B504460CB9012010BDA069F2
:1014200000B100E000BF94F8390028B9002084F82A
:101430003800204600F028F8242084F8390020687D
:10144000C06820F400502168C860204600F0CCFB42
:101450002068006920F49040216808612068406994
:1014600020F02A00216848612068C06840F40050DC
:101470002168C8600020E063202084F8390084F8E7
:101480003A000020CAE7000010B586B004461F49A4
:101490002068884238D100BF002000901C480068B6
:1014A00040F001001A4908600846006800F0010099
:1014B000009000BF00BF00BF00200090144814300F
:1014C000006840F0100012491431086008460068B6
:1014D00000F01000009000BF00BF4FF4C06001900A
:1014E0000220029001200390022004900720059022
:1014F00001A90848FEF7DEFE2520FFF73EF803228B
:1015000011462520FFF749F806B010BD0010014034
:10151000303802400000024010B5034693F83A000C
:1015200020282FD101B10AB9012010BD00BF93F8C6
:101530003800012801D10220F7E7012083F83800A4
:1015400000BF99629A85DA850020D863222083F84B
:101550003A0000BF002083F8380000BF1868C06858
:1015600040F480701C68E0601868406940F0010039
:101570001C6860611868C06840F020001C68E0606A
:101580000020D2E70220D0E71D4A0168914236D1FF
:101590001C49098801F4004189BB1A49098801F4F2
:1015A000804171B1184909780A2903D00021154AF0
:1015B000118024E01349098841F40041114A118047
:1015C0001DE0114909780D2906D10E49098841F419
:1015D00080410C4A118012E00B490978094A1288AF
:1015E000C2F30D02094B995406490988491C054A62
:1015F000118011460988C72901DD0021118070473B
:10160000001001401E0000201C000020B800002037
:101610007047000010B504464FF4167000F09AFEB3
:10162000054800F021F80548006808B9012000E0ED
:1016300000200249086010BD24000020A882424218
:1016400010B5044620684068C0F3402058B12068B7
:10165000806800F0010030B16FF0010021688860FF
:101660002046FFF7D7FF10BD01460A68C868106022
:101670000020704700BFFEE700B587B000BF002024
:1016800001901E48006840F020001C490860084690
:10169000006800F02000019000BF00BF00BF0020E4
:1016A00001900846006840F0200008600846006885
:1016B00000F02000019000BF00BF481502900120FB
:1016C000039004900320059002A90D48FEF7F2FD57
:1016D0004FF4806002900320059002A90848FEF7AD
:1016E000E9FD012251020648FEF7E4FE01229102C3
:1016F0000348FEF7DFFE07B000BD000030380240AF
:101700000014024000BFFEE770477047704710B5F5
:10171000FEF7E2FE10BD000010B504460420FFF7FE
:1017200013FB0148046010BD180000202DE9F041B2
:1017300092B080460C4615461E46002700BF00208A
:1017400000902A48006840F0805028490860084608
:10175000006800F08050009000BF00BF00BF002074
:1017600000902348006840F4804021490860084602
:10177000006800F48040009000BF00BF0120069088
:101780000004079002200C9041050D91CDF838809F
:101790000F941095119606A8FFF792F807460FB11F
:1017A00000BFFEE70F20019002200290002003906E
:1017B0004FF4A05004904FF480500590052101A8EB
:1017C000FEF73EFF07460FB100BFFEE7FEF778FECB
:1017D00041F20101884205D10648006840F480705A
:1017E0000449086012B0BDE8F081000040380240B2
:1017F00000700040003C02400548006840F4700062
:10180000034908604FF00060014980390860704763
:1018100088ED00E07FB505460C4611481149086087
:1018200008464460C560002181600161FFF79AFBB2
:1018300000200090012001900020039000226946C2
:101840000848FFF71FFB00210648FFF7E5FB0548A6
:101850000068C06840F0010002490968C8607FBDA7
:10186000000C00403800002010B50248FFF710FCC3
:1018700010BD00003800002010B50268294B9842C6
:101880000ED0B0F1804F0BD0274B984208D0274B99
:10189000984205D0264B984202D0264B984203D15D
:1018A00022F070024B681A431E4B984220D0B0F1D0
:1018B000804F1DD01C4B98421AD01C4B984217D019
:1018C0001B4B984214D01B4B984211D01A4B984294
:1018D0000ED01A4B98420BD0194B984208D0194B96
:1018E000984205D0184B984202D0184B984203D129
:1018F00022F44072CB681A4322F080034C6943EA19
:10190000040202608B68C3620B688362054B9842D5
:1019100002D0084B984201D10B6903630123436154
:1019200010BD00000000014000040040000800401D
:10193000000C004000040140004001400044014010
:101940000048014000180040001C004000200040FA
:1019500030B501F01F05012404FA05F3046A9C4325
:101960000462046A01F01F0502FA05F52C430462C3
:1019700030BD000070B50C461546066A26F001061B
:1019800006628169026A184EB04214D0B0F1804FED
:1019900011D0164EB0420ED0154EB0420BD0154E9F
:1019A000B04208D0144EB04205D0144EB04202D01E
:1019B000134EB04201D1012600E000261EB121F0F5
:1019C0000301294301E041F0010121F0F001F0267B
:1019D00006EA0316314322F00A0204F00A063243F3
:1019E0008161026270BD00000000014000040040FF
:1019F00000080040000C004000040140004001408D
:101A00000018004070B50C461546066A26F0100610
:101A100006628169026A21F4407141EA052121F4DC
:101A200070414FF4704606EA0336314322F0A002BB
:101A3000A02606EA041632438161026270BD70B5C9
:101A40000C461546066A26F480760662C169026A6B
:101A500021F00301294321F0F001F02606EA0316E4
:101A6000314322F420624FF4206606EA0426324312
:101A7000C161026270BD70B50C461546066A26F457
:101A800080560662C169026A21F4407141EA05216B
:101A900021F470414FF4704606EA0336314322F4D4
:101AA00020424FF4204606EA04363243C161026206
:101AB00070BD000010B5044609480A490860084690
:101AC000446000218160C160016181610C2141613C
:101AD000FFF7A0FC012204490248FFF71DFD10BDDD
:101AE00000100140780000201C00002070B5054661
:101AF000AC6B0020E085E0842046FFF7D5FB70BD8D
:101B00000168C96821F490710268D160016849696F
:101B100021F0010102685161202180F83A107047DC
:101B200010B504462068C06820F040002168C860F5
:101B3000202084F839002046FFF76AFD002010BD00
:101B400070B5044694F83A0022284AD1A068B0F54E
:101B5000805F13D1A56A206940B920684068C0F34E
:101B600008002880A06A801CA06219E020684068F4
:101B7000C0B22880A06A401CA06211E0206938B978
:101B800020684068C1B2A26A501CA062117007E0D0
:101B90002068406800F07F01A26A501CA0621170AA
:101BA000E08D401E80B2E085C8B92068C06820F092
:101BB00020002168C8602068C06820F48070216817
:101BC000C8602068406920F0010021684861202039
:101BD00084F83A002046FFF7D7FC002070BD0020B3
:101BE000FCE70220FAE700002DE9F84F04462068E0
:101BF000006920F44050E1680843216808612169C8
:101C0000A068084361690843E169084300902068BF
:101C1000C06849F20C618843009908432168C86094
:101C20002068406920F44070A16908432168486138
:101C3000E069B0F5004F75D1E3492068884203D0D0
:101C4000E249206888426FD1FEF7D2FD814602202A
:101C50006168A0FB01510B461920A9FB00712A46BF
:101C60003846FEF7ADFA6421B0FBF1F04FEA001AF6
:101C700002206168A0FB01510B461920A9FB0071ED
:101C80002A463846FEF79CFA074602206168A0FB08
:101C900001510B461920A9FB00B12A465846FEF710
:101CA0008FFA6421B0FBF1F000EBC00101EB0010F2
:101CB000A7EB8000322101EBC0006421B0FBF1F002
:101CC00000F0F8000AEB400A02206168A0FB015115
:101CD0000B461920A9FB00712A463846FEF770FA18
:101CE000074602206168A0FB01510B461920A9FBA1
:101CF00000B12A465846FEF763FA6421B0FBF1F0C2
:101D000000EBC00101EB0010A7EB8000322101EBDA
:101D1000C0006421B0FBF1F000F0070050442168DE
:101D200088604FE16EE0FFE7FEF752FD814602203A
:101D30006168A0FB01510B461920A9FB00712A46DE
:101D40003846FEF73DFA6421B0FBF1F04FEA001A85
:101D500002206168A0FB01510B461920A9FB00710C
:101D60002A463846FEF72CFA074602206168A0FB97
:101D700001510B461920A9FB00B12A465846FEF72F
:101D80001FFA6421B0FBF1F000EBC00101EB001081
:101D9000A7EB8000322101EBC0006421B0FBF1F021
:101DA00000F0F8000AEB400A02206168A0FB015134
:101DB0000B461920A9FB00712A463846FEF700FAA7
:101DC000074602206168A0FB015003461920A9FBC9
:101DD00000B12A465846FEF7F3F96421B0FBF1F052
:101DE00000EBC00101EB0010A7EB8000322101EBFA
:101DF000C0006421B0FBF1F000F0070050442168FE
:101E00008860DFE070492068884203D06F4920680D
:101E100088426BD1FEF7ECFC814604206168A0FB90
:101E200001510B461920A9FB00712A463846FEF7DE
:101E3000C7F9824604206168A0FB01510B461920B6
:101E4000A9FB00712A463846FEF7BAF96421B0FBB7
:101E5000F1F000EBC00101EB0010AAEB8000322191
:101E600001EB00106421B0FBF1F000F0F00A042057
:101E70006168A0FB015003461920A9FB00712A46A6
:101E80003846FEF79DF96421B0FBF1F00AEB001A29
:101E900004206168A0FB01510B461920A9FB0071C9
:101EA0002A463846FEF78CF9074604206168A0FBF5
:101EB000015003461920A9FB00B12A465846FEF7F7
:101EC0007FF96421B0FBF1F000EBC00101EB0010E1
:101ED000A7EB8000322101EB00106421B0FBF1F090
:101EE00000F00F005044216888606BE0FEF770FC42
:101EF000814604206168A0FB015003461920A9FB1C
:101F000000712A463846FEF75BF982460420616874
:101F1000A0FB015003461920A9FB00712A46384650
:101F2000FEF74EF96421B0FBF1F000EBC00101EBCC
:101F30000010AAEB8000322101EB00106421B0FBFD
:101F4000F1F000F0F00A04206168A0FB01500346A4
:101F50001920A9FB00712A463846FEF731F96421A1
:101F6000B0FBF1F00AEB001A04206168A0FB0170DD
:101F700003461920A9FB005001463A462846FEF7C1
:101F80001FF9074604206168A0FB01500346192091
:101F9000A9FB00B12A465846FEF712F96421B0FBAE
:101FA000F1F000EBC00101EB0010A7EB8000322143
:101FB00001EB00106421B0FBF1F000F00F00504481
:101FC00021688860BDE8F88F0010014000140140CE
:101FD000014691F8390021282CD18868B0F5805F3E
:101FE0000FD10A6A1088C0F308000B6858600869AE
:101FF00018B9086A801C086209E0086A401C086277
:1020000005E00B6A581C086218780B685860C88C89
:10201000401E80B2C88458B90868C06820F08000AB
:102020000B68D8600868C06840F040000B68D86052
:10203000002070470220FCE710B500240E48FFF78F
:102040003FF900BF03E0641C601C00B904E00A48CB
:10205000FFF72BF92028F6D100BF002403E0641C11
:10206000601C00B906E0012204490348FFF754FA56
:102070000028F4D100BF10BD780000201C00002013
:1020800000BFFEE710B50248FFF7DAFA10BD000006
:10209000240000200FB4054B10B503A9044A029890
:1020A00000F034F810BC5DF814FB00009923000820
:1020B0002000002002480068C0F3022070470000A2
:1020C0000CED00E010B5002804DB0A07130E054AEA
:1020D000135406E00A07140E034A00F00F031B1FF7
:1020E000D45410BD00E400E018ED00E002E008C8A0
:1020F000121F08C1002AFAD170477047002001E082
:1021000001C1121F002AFBD1704700002DE9FF4FCB
:102110008BB09A460F460446002606E025280BD0D1
:1021200052460D999047641C761C20780028F5D102
:102130000FB03046BDE8F08F0025A94601227D4949
:1021400000E0054314F8013F203B02FA03F0084287
:10215000F7D120782E2817D114F8010F45F0040587
:102160002A280ED06FF02F022078A0F13001092923
:102170000AD809EB890102EB410100EB0109641C5B
:10218000F2E757F8049B641C20786C280DD004DC1F
:102190004C2812D06A2811D104E074280DD07A2876
:1021A0000CD10AE045F4001507E0617845F480158C
:1021B000814202D1641C05F58015641C20786928D1
:1021C0003ED006DC0028B3D063280BD0642804D1AD
:1021D00036E0732810D075285CD052460D99904790
:1021E000761CA5E017F8040B8DF8000000208DF890
:1021F0000100E846012003E057F8048B4FF0FF3060
:1022000069074FF0000501D40AE06D1C4D450DDA59
:102210008542FADB18F805100029F6D106E06D1C9E
:102220008542FCDB18F805100029F8D12E4404E0A3
:1022300018F8010B52460D9990476D1EF8D277E0C1
:1022400000200A90C5F302504FF00A0B02280CD070
:1022500001CFC117021E71F100020CDA0023D0EB8E
:10226000030063EB01012D2208E0FF1D27F00707A3
:10227000F7E80201EEE72A0504D52B228DF8242089
:10228000012203E0EA070FD02022F7E70DF1200832
:10229000089218E000200A90C5F302504FF00A0B94
:1022A000022803D001CF00210022EFE7FF1D27F015
:1022B0000707F7E80201F7E75A460A9BFDF780FF98
:1022C000303208F8012D50EA0102F5D1ADEB0800DB
:1022D00000F1200B680701D44FF00109D94502DD58
:1022E000A9EB0B0000E000208146002506E009A8CC
:1022F0005246405D0D9990476D1C761C08988542AA
:10230000F5DB04E0302052460D999047761CB9F178
:102310000001A9F10109F5DC05E018F8010B5246AE
:102320000D999047761CBBF10001ABF1010BF4DC79
:10233000641CFAE60928010010B5044603E04FF4D6
:102340007A7000F007F8201EA4F101018CB2F6D1DA
:1023500010BD000070B5034600224FF0E026B569BD
:10236000B1690C4E366803FB06F410E04FF0E0262E
:10237000B06981420BD0814202D90E1A324402E088
:102380002E1A0E4432440146A24200D300E0EDE78B
:1023900000BF70BD1800002000BF044A126802F0A0
:1023A0004002002AF9D0014A5060704700100140F5
:1023B000002600BFFEF79CF8072302224FF4A87105
:1023C0000820FFF7B3F9A820FFF7A6F9FFF754F9A3
:1023D0004FF4E130FFF76EFB5321B01EFFF71AFAFE
:1023E0001DA0FFF757FE35E01F48007800F0800081
:1023F000E8B11D48007800F03F00C51704464FF0D3
:10240000FF3300272146A1FB030C05FB03C204FB9D
:102410000725044615480068241845F100052246A2
:102420002B4613A0FFF736FE00200F490870701CE2
:10243000C6B2142096FBF0F100FB116038B91348C6
:10244000006808B9012000E00020104908600A2057
:10245000FFF772FFC8E70000CAE4C8EBB2B6BBF1F1
:10246000CAB5D1E90A0000001000002014000020C5
:10247000B8DFB5E7C6BDB3D6D0F8CAB1BCE4A3BADD
:10248000256C6C642075730A00000000A48242422F
:102490000000000000000000010203040607080914
:1024A0000000000001020304C8240008000000200E
:1024B00024000000EC200008EC2400082400002088
:1024C0005C050000FC2000080024F400000000006F
:1024D00010000000010000000000000000000000EB
:0C24E000000000000000000000000000F0
:040000050800018965
:00000001FF
