:020000040800F2
:10000000180400209D0100086D0D0008650D000812
:10001000690D0008D9020008790E000800000000F0
:10002000000000000000000000000000710D00084A
:10003000DD020008000000006F0D0008730D0008CD
:10004000B7010008B7010008B7010008B7010008B0
:10005000B7010008B7010008B7010008B7010008A0
:10006000B7010008B7010008B7010008B701000890
:10007000B7010008B7010008B7010008B701000880
:10008000B7010008B7010008B7010008B701000870
:10009000B7010008B7010008B7010008B701000860
:1000A000B7010008B7010008B7010008B701000850
:1000B000B7010008B7010008B7010008B701000840
:1000C000B7010008B7010008B7010008B701000830
:1000D000B7010008B7010008B7010008B701000820
:1000E000B7010008B7010008B7010008B701000810
:1000F000B7010008B7010008B7010008B701000800
:10010000B7010008B7010008B7010008B7010008EF
:10011000B7010008B7010008B7010008B7010008DF
:10012000B7010008B7010008B7010008B7010008CF
:10013000B7010008B7010008B7010008B7010008BF
:10014000B7010008B7010008B7010008B7010008AF
:10015000B7010008B7010008B7010008B70100089F
:10016000B7010008B7010008B7010008B70100088F
:10017000B7010008B7010008B7010008000000003F
:10018000B7010008B7010008DFF80CD000F068F8EC
:1001900000480047310F0008180400200648804737
:1001A00006480047FEE7FEE7FEE7FEE7FEE7FEE75C
:1001B000FEE7FEE7FEE7FEE75D0E000889010008A6
:1001C0002DE9F05F0546002092469B46884606468C
:1001D000814640241BE0284641464746224600F01F
:1001E0002FF853465A46C01A914110D3114618466B
:1001F000224600F016F82D1A67EB01084F462246FA
:100200000120002100F00DF817EB00094E41201EDF
:10021000A4F10104DFDC484631462A464346BDE8E6
:10022000F09F202A04DB203A00FA02F100207047F8
:100230009140C2F1200320FA03F319439040704724
:10024000202A04DB203A21FA02F00021704721FA2B
:1002500002F3D040C2F12002914008431946704792
:10026000064C074D06E0E06840F0010394E8070003
:1002700098471034AC42F6D3FFF78AFF840F00088A
:10028000A40F000800B587B000BF002001901048FF
:10029000006840F020000E4908600846006800F041
:1002A0002000019000BF00BF88150290012003903C
:1002B00004900320059002A9064800F011F80022DE
:1002C0004FF48071034800F00BF907B000BD000047
:1002D000303802400014024000BFFEE770470000C3
:1002E000F8B502460B460025002400200021DCE082
:1002F000012606FA01F51E6806EA0504AC4273D130
:100300005E68012E08D05E68022E05D05E68112E50
:1003100002D05E68122E13D190684F000326BE40B3
:10032000B0434F00DE68BE40304390605068012605
:100330008E40B0431E79C6F300168E4030435060A5
:10034000D0684F000326BE40B0434F009E68BE40B9
:100350003043D0605E68022E02D05E68122E13D148
:10036000CF0802F1200656F827004E07F70E0F2699
:10037000BE40B0434F07FF0E1E69BE403043CF085A
:1003800002F1200646F8270010684F000326BE4001
:10039000B0431E7906F003064F00BE4030431060A4
:1003A0005E6806F08056B6F1805F7DD100BF002602
:1003B0000096404E366846F480463E4F3E603E46CC
:1003C000366806F48046009600BF00BF3A4E8F089C
:1003D00056F827008E07370F0F26BE40B043374E22
:1003E000B24202D1002624E05EE0354EB24201D195
:1003F00001261EE0334EB24201D1022619E0324EF0
:10040000B24201D1032614E0304EB24201D104269B
:100410000FE02F4EB24201D105260AE02D4EB24226
:1004200001D1062605E02C4EB24201D1072600E09C
:1004300008268F073F0FBE4030431F4E8F0846F8F7
:100440002700264E3068A0435E6806F48036B6F575
:10045000803F00D12043214E3060361D3068A043DC
:100460005E6806F40036B6F5003F00D120431B4E0F
:10047000361D3060361D3068A0435E6806F4801675
:10048000B6F5801F00D12043144E08363060361D6B
:100490003068A0435E6806F40016B6F5001F00D170
:1004A00020430E4E0C363060491C1029FFF420AF5B
:1004B000F8BD000044380240083801400000024006
:1004C0000004024000080240000C024000100240FC
:1004D0000014024000180240001C0240003C014091
:1004E0000AB1816101E00B04836170470148006833
:1004F000000C7047002004E00148006870470000CD
:1005000004000020034800680349097808440149B1
:1005100008607047040000200C00002010B50D4852
:10052000006840F400700B4908600846006840F419
:10053000806008600846006840F48070086005200C
:1005400000F070F80F2000F007F800F02BF8002002
:1005500010BD0000003C024070B504460E48007813
:100560004FF47A71B1FBF0F00C490968B1FBF0F57A
:10057000284600F0DDFB08B1012070BD102C07D229
:1005800000222146501E00F00EF80548046001E0EC
:100590000120F2E70020F0E70C000020000000201E
:1005A0000800002070472DE9F05F80460D46164692
:1005B000002700F063FC074639462A46334601F01F
:1005C0000700C0F1070ABAF1040F02D94FF0040A7C
:1005D00001E0C0F1070AD14600F1040ABAF1070FA1
:1005E00002D24FF0000A01E0A0F1030AD4464FF016
:1005F000010A0AFA09FAAAF1010A0AEA020A0AFA3F
:100600000CFA4FF0010B0BFA0CFBABF1010B0BEAF0
:10061000030B4AEA0B042146404600F037FCBDE8D4
:10062000F09F000000BF00F00702064B19684FF66C
:10063000FF031940044B0B4343EA0221014B1960AD
:1006400000BF70470CED00E00000FA0570B50446ED
:100650000D460CB9012070BD5848006800F00F002D
:10066000A84209D255490D700846006800F00F00F5
:10067000A84201D00120EEE7207800F00200022815
:100680001DD1207800F00400042805D14C480068F2
:1006900040F4E0504A490860207800F0080008283B
:1006A00005D14748006840F4604045490860444827
:1006B000006820F0F000A1680843414908602078F4
:1006C00000F00100A8B36068012807D13C48083851
:1006D0000068C0F34040B8B90120BCE76068022858
:1006E00002D06068032807D1354808380068C0F395
:1006F000406048B90120AEE7314808380068C0F3CF
:10070000400008B90120A6E72D48006820F003004A
:10071000616808432A490860FFF7EEFE064609E0D3
:10072000FFF7EAFE801B41F28831884202D903209C
:1007300091E707E02248006800F00C006168B0EB28
:10074000810FEDD11D48006800F00F00A84209D9C3
:100750001A490D700846006800F00F00A84201D049
:10076000012078E7207800F00400042807D114481D
:10077000006820F4E050E1680843114908602078DF
:1007800000F00800082808D10D48006820F46040F7
:10079000216940EAC1000A49086000F019F80849D7
:1007A0000968C1F30311074A515CC8400649086053
:1007B00006480068FFF7D0FE00204CE7003C0240EE
:1007C000083802406C0F00080000002008000020DC
:1007D0002DE9F047002400250026A14625480068A1
:1007E00000F00C0020B1042805D008283AD105E01B
:1007F000DFF8849039E0DFF8849036E01D48001F70
:10080000006800F03F041B48001F006800F48000EF
:1008100078B11A481749091F0968C1F38811A0FB6C
:1008200001700146224600233846FFF7C9FC054601
:100830000EE011480F49091F0968C1F38811A0FB98
:1008400001700146224600233846FFF7B9FC0546F1
:100850000848001F0068C0F30140401C4600B5FB7B
:10086000F6F902E0DFF8109000BF00BF4846BDE88F
:10087000F0870000083802400024F40000127A00DB
:10088000F8B504460CB90120F8BD207800F001004D
:10089000002874D0F948006800F00C0004280DD03E
:1008A000F648006800F00C00082813D1F348001F38
:1008B000006800F48000B0F5800F0BD1EF480838D5
:1008C0000068C0F34040002859D06068002856D125
:1008D0000120D9E700BF6068B0F5803F08D1E74844
:1008E0000838006840F48030E449083908601EE0A8
:1008F0006068B0F5A02F0DD1E0480838006840F4DA
:100900008020DE49083908600846006840F48030DD
:1009100008600CE0D9480838006820F48030D749D6
:10092000083908600846006820F48020086000BF8D
:10093000606890B1FFF7E0FD054606E0FFF7DCFDDB
:10094000401B642801D903209EE7CC480838006882
:10095000C0F340400028F1D011E0FFF7CDFD05467F
:1009600006E0FFF7C9FD401B642801D903208BE78F
:10097000C24808380068C0F340400028F1D1207810
:1009800000F0020002285FD1BC48006800F00C00B3
:1009900058B1BA48006800F00C0008281CD1B748CC
:1009A000001F006800F48000B0B9B448083800683F
:1009B000C0F3400020B1E068012801D0012063E7C6
:1009C000AE480838006820F0F800216940EAC1000C
:1009D000AA490839086037E0E06800B30120A84957
:1009E0000860FFF789FD054606E0FFF785FD401B1F
:1009F000022801D9032047E7A04808380068C0F35F
:100A000040000028F1D09D480838006820F0F80028
:100A1000216940EAC10099490839086014E00020C2
:100A200097490860FFF768FD054606E0FFF764FD9B
:100A3000401B022801D9032026E7904808380068A7
:100A4000C0F340000028F1D1207800F00800082809
:100A50002CD16069A8B101208A490860FFF74CFDDC
:100A6000054606E0FFF748FD401B022801D9032098
:100A70000AE782486C300068C0F340000028F1D0DB
:100A800014E000207F490860FFF736FD054606E0C8
:100A9000FFF732FD401B022801D90320F4E6774816
:100AA0006C300068C0F340000028F1D1207800F0DD
:100AB0000400042870D1002770483830006800F026
:100AC000805090B900BF002000906C48383000681A
:100AD00040F080506949383108600846006800F0ED
:100AE0008050009000BF00BF01276748006800F4F5
:100AF0008070B0B96448006840F480706249086052
:100B0000FFF7FAFC054606E0FFF7F6FC401B02285B
:100B100001D90320B8E65C48006800F48070002822
:100B2000F2D000BFA068012808D15448683000689E
:100B300040F001005149683108601DE0A0680528B7
:100B40000DD14E486830006840F004004B496831D0
:100B500008600846006840F0010008600CE0474863
:100B60006830006820F00100444968310860084698
:100B7000006820F00400086000BFA068A8B1FFF77B
:100B8000BBFC054609E0FFF7B7FC401B41F288318A
:100B9000884202D9032077E626E0384868300068AA
:100BA000C0F340000028EED013E0FFF7A5FC054697
:100BB00008E0FFF7A1FC401B41F28831884201D9CF
:100BC000032061E62D4868300068C0F3400000282B
:100BD000EFD1012F07D129483830006820F080502C
:100BE00026493831086000BFA069002845D0234855
:100BF000006800F00C0008285DD0A069022845D1EB
:100C000000201F490866FFF777FC054606E0FFF75E
:100C100073FC401B022801D9032035E61748083829
:100C20000068C0F340600028F1D1D4E9070108430F
:100C3000616A40EA81110122A06AC2EB500041EAD8
:100C400000412C20005D41EA00600C49091F08604A
:100C500001200B490866FFF74FFC054606E0FFF749
:100C60004BFC401B022801D903200DE6034808383D
:100C70000068C0F340600028F1D03FE0083802402F
:100C800000004742800E47420070004000201C498F
:100C90000866FFF731FC054606E0FFF72DFC401B18
:100CA000022801D90320EFE516480068C0F3406030
:100CB0000028F2D122E0A069012800D1E4E5114822
:100CC000001D066806F48001E069814214D106F037
:100CD0003F01206A81420FD147F6C0703040616AFF
:100CE000884209D106F44031A06A814204D106F05D
:100CF0007061E06A814201D00120C5E50020C3E5B2
:100D00000000474200380240042808D14FF0E0219B
:100D1000096941F004014FF0E022116107E04FF052
:100D2000E021096921F004014FF0E02211617047D0
:100D300070B504462546681EB0F1807F01D30120BE
:100D40000FE0681E4FF0E02148610F214FF0FF30A7
:100D500000F09CF800204FF0E02188610720086136
:100D6000002070BD00BFFEE700BFFEE77047704780
:100D7000704710B5FFF7C6FB10BD000010B5044664
:100D80000420FFF7C1FF0148046010BD10000020DF
:100D90002DE9F04192B080460C4615461E460027CC
:100DA00000BF002000902A48006840F08050284989
:100DB00008600846006800F08050009000BF00BF47
:100DC00000BF002000902348006840F48040214983
:100DD00008600846006800F48040009000BF00BF33
:100DE000012006900004079002200C9041050D910F
:100DF000CDF838800F941095119606A8FFF740FDA6
:100E000007460FB100BFFEE70F20019002200290BD
:100E1000002003904FF4A05004904FF480500590B0
:100E2000052101A8FFF712FC07460FB100BFFEE73E
:100E3000FFF75CFB41F20101884205D106480068DA
:100E400040F480700449086012B0BDE8F0810000F1
:100E50004038024000700040003C024005480068F5
:100E600040F47000034908604FF000600149803988
:100E70000860704788ED00E000BFFEE702480068A8
:100E8000C0F30220704700000CED00E010B5002810
:100E900004DB0A07130E054A135406E00A07140E72
:100EA000034A00F00F031B1FD45410BD00E400E000
:100EB00018ED00E002E008C8121F08C1002AFAD1AC
:100EC00070477047002001E001C1121F002AFBD1CA
:100ED000704710B5044603E04FF47A7000F006F84E
:100EE000201EA4F101018CB2F6D110BD70B50346ED
:100EF00000224FF0E026B569B1690C4E366803FB5D
:100F000006F410E04FF0E026B06981420BD0814238
:100F100002D90E1A324402E02E1A0E44324401461F
:100F2000A24200D300E0EDE700BF70BD100000203A
:100F3000FFF7F4FA072302224FF4A8710820FFF705
:100F400027FFA820FFF71AFFFFF79CF90AE00648E1
:100F5000006808B9012000E0002003490860FA2079
:100F6000FFF7B7FFF3E70000A08242420000000055
:100F70000000000001020304060708090000000049
:100F800001020304A40F0008000000201400000068
:100F9000B40E0008B80F000814000020040400007C
:100FA000C40E00080024F40000000000100000003F
:080FB000010000000000000038
:040000050800018965
:00000001FF
