:020000040800F2
:10000000380500209D0100086D120008D911000874
:100010006912000885020008451900080000000068
:100020000000000000000000000000007112000845
:1000300089020008000000006F1200087312000817
:1000400049190008B7010008B7010008B701000806
:10005000B7010008B7010008B7010008B7010008A0
:10006000B7010008B7010008B7010008B701000890
:10007000B7010008B7010008B7010008B701000880
:10008000B7010008B7010008B7010008B701000870
:10009000B7010008B7010008B7010008B701000860
:1000A000B7010008B7010008B7010008B701000850
:1000B000B7010008B7010008B7010008B701000840
:1000C000B7010008B7010008B7010008B701000830
:1000D000B7010008FD180008B7010008B7010008C3
:1000E000B7010008B7010008B7010008B701000810
:1000F000B7010008B7010008B7010008B701000800
:10010000B7010008B7010008B7010008B7010008EF
:10011000B7010008B7010008B7010008B7010008DF
:10012000B7010008B7010008B7010008B7010008CF
:10013000B7010008B7010008B7010008B7010008BF
:10014000B7010008B7010008B7010008B7010008AF
:10015000B7010008B7010008B7010008B70100089F
:10016000B7010008B7010008B7010008B70100088F
:10017000B7010008B7010008B7010008000000003F
:10018000B7010008B7010008DFF80CD000F068F8EC
:1001900000480047391A0008380500200648804703
:1001A00006480047FEE7FEE7FEE7FEE7FEE7FEE75C
:1001B000FEE7FEE7FEE7FEE75D13000889010008A1
:1001C0002DE9F05F0546002092469B46884606468C
:1001D000814640241BE0284641464746224600F01F
:1001E0002FF853465A46C01A914110D3114618466B
:1001F000224600F016F82D1A67EB01084F462246FA
:100200000120002100F00DF817EB00094E41201EDF
:10021000A4F10104DFDC484631462A464346BDE8E6
:10022000F09F202A04DB203A00FA02F100207047F8
:100230009140C2F1200320FA03F319439040704724
:10024000202A04DB203A21FA02F00021704721FA2B
:1002500002F3D040C2F12002914008431946704792
:10026000064C074D06E0E06840F0010394E8070003
:1002700098471034AC42F6D3FFF78AFF9C1A000867
:10028000BC1A000800BFFEE77047014691F8350030
:10029000022803D08020486501207047052081F89E
:1002A00035000868006820F001000A68106000202E
:1002B000F3E70000F8B502460B46002500240020B5
:1002C0000021DCE0012606FA01F51E6806EA0504B5
:1002D000AC4273D15E68012E08D05E68022E05D054
:1002E0005E68112E02D05E68122E13D190684F0006
:1002F0000326BE40B0434F00DE68BE4030439060EE
:10030000506801268E40B0431E79C6F300168E4019
:1003100030435060D0684F000326BE40B0434F00CA
:100320009E68BE403043D0605E68022E02D05E6898
:10033000122E13D1CF0802F1200656F827004E07DF
:10034000F70E0F26BE40B0434F07FF0E1E69BE409A
:100350003043CF0802F1200646F8270010684F000E
:100360000326BE40B0431E7906F003064F00BE4090
:10037000304310605E6806F08056B6F1805F7DD134
:1003800000BF00260096404E366846F480463E4F39
:100390003E603E46366806F48046009600BF00BFC9
:1003A0003A4E8F0856F827008E07370F0F26BE40AB
:1003B000B043374EB24202D1002624E05EE0354E13
:1003C000B24201D101261EE0334EB24201D10226D3
:1003D00019E0324EB24201D1032614E0304EB2424F
:1003E00001D104260FE02F4EB24201D105260AE0CA
:1003F0002D4EB24201D1062605E02C4EB24201D16B
:10040000072600E008268F073F0FBE4030431F4EEF
:100410008F0846F82700264E3068A0435E6806F431
:100420008036B6F5803F00D12043214E3060361D26
:100430003068A0435E6806F40036B6F5003F00D190
:1004400020431B4E361D3060361D3068A0435E6869
:1004500006F48016B6F5801F00D12043144E0836EE
:100460003060361D3068A0435E6806F40016B6F5AD
:10047000001F00D120430E4E0C363060491C10295D
:10048000FFF420AFF8BD00004438024008380140B6
:10049000000002400004024000080240000C02403C
:1004A000001002400014024000180240001C0240EC
:1004B000003C01400AB1816101E00B048361704797
:1004C00001480068000C7047002004E00148006803
:1004D00070470000040000200348006803490978C1
:1004E0000844014908607047040000200C00002007
:1004F00010B50D48006840F400700B4908600846CC
:10050000006840F4806008600846006840F480702D
:100510000860052000F080F80F2000F007F800F0D8
:100520002BF8002010BD0000003C024070B50446CE
:100530000E4800784FF47A71B1FBF0F00C4909686D
:10054000B1FBF0F5284600F013FC08B1012070BDA6
:10055000102C07D200222146501E00F01EF805483C
:10056000046001E00120F2E70020F0E70C00002029
:1005700000000020080000207047014608460028BF
:1005800009DB00F01F0301229A4043099B0003F19D
:10059000E023C3F8002100BF70472DE9F05F8046DB
:1005A0000D461646002701F0EDF9074639462A4662
:1005B000334601F00700C0F1070ABAF1040F02D96F
:1005C0004FF0040A01E0C0F1070AD14600F1040A25
:1005D000BAF1070F02D24FF0000A01E0A0F1030ABE
:1005E000D4464FF0010A0AFA09FAAAF1010A0AEA06
:1005F000020A0AFA0CFA4FF0010B0BFA0CFBABF1F2
:10060000010B0BEA030B4AEA0B042146404601F0BA
:10061000C1F9BDE8F09F000000BF00F00702064BE3
:1006200019684FF6FF031940044B0B4343EA0221BC
:10063000014B196000BF70470CED00E00000FA05A7
:1006400070B504460D460CB9012070BD58480068CD
:1006500000F00F00A84209D255490D700846006805
:1006600000F00F00A84201D00120EEE7207800F052
:10067000020002281DD1207800F00400042805D1D2
:100680004C48006840F4E0504A490860207800F087
:100690000800082805D14748006840F460404549F3
:1006A00008604448006820F0F000A1680843414910
:1006B0000860207800F00100A8B36068012807D125
:1006C0003C4808380068C0F34040B8B90120BCE796
:1006D0006068022802D06068032807D135480838CE
:1006E0000068C0F3406048B90120AEE731480838DF
:1006F0000068C0F3400008B90120A6E72D48006853
:1007000020F00300616808432A490860FFF7DEFE15
:10071000064609E0FFF7DAFE801B41F28831884285
:1007200002D9032091E707E02248006800F00C009E
:100730006168B0EB810FEDD11D48006800F00F003B
:10074000A84209D91A490D700846006800F00F0048
:10075000A84201D0012078E7207800F004000428A6
:1007600007D11448006820F4E050E16808431149BB
:100770000860207800F00800082808D10D480068BB
:1007800020F46040216940EAC1000A49086000F095
:100790003FF808490968C1F30311074A515CC84092
:1007A0000649086006480068FFF7C0FE00204CE7D5
:1007B000003C024008380240841A00080000002073
:1007C0000800002001480068704700000000002079
:1007D00000B5FFF7F7FF04490968C1F38221034A16
:1007E000515CC84000BD000008380240941A00085F
:1007F00000B5FFF7E7FF04490968C1F34231034A36
:10080000515CC84000BD000008380240941A00083E
:100810002DE9F047002400250026A1462548006860
:1008200000F00C0020B1042805D008283AD105E0DA
:10083000DFF8849039E0DFF8849036E01D48001F2F
:10084000006800F03F041B48001F006800F48000AF
:1008500078B11A481749091F0968C1F38811A0FB2C
:1008600001700146224600233846FFF7A9FC0546E1
:100870000EE011480F49091F0968C1F38811A0FB58
:1008800001700146224600233846FFF799FC0546D1
:100890000848001F0068C0F30140401C4600B5FB3B
:1008A000F6F902E0DFF8109000BF00BF4846BDE84F
:1008B000F0870000083802400024F40000127A009B
:1008C000F8B504460CB90120F8BD207800F001000D
:1008D000002874D0F948006800F00C0004280DD0FE
:1008E000F648006800F00C00082813D1F348001FF8
:1008F000006800F48000B0F5800F0BD1EF48083895
:100900000068C0F34040002859D06068002856D1E4
:100910000120D9E700BF6068B0F5803F08D1E74803
:100920000838006840F48030E449083908601EE067
:100930006068B0F5A02F0DD1E0480838006840F499
:100940008020DE49083908600846006840F480309D
:1009500008600CE0D9480838006820F48030D74996
:10096000083908600846006820F48020086000BF4D
:10097000606890B1FFF7AAFD054606E0FFF7A6FD07
:10098000401B642801D903209EE7CC480838006842
:10099000C0F340400028F1D011E0FFF797FD054675
:1009A00006E0FFF793FD401B642801D903208BE785
:1009B000C24808380068C0F340400028F1D12078D0
:1009C00000F0020002285FD1BC48006800F00C0073
:1009D00058B1BA48006800F00C0008281CD1B7488C
:1009E000001F006800F48000B0B9B44808380068FF
:1009F000C0F3400020B1E068012801D0012063E786
:100A0000AE480838006820F0F800216940EAC100CB
:100A1000AA490839086037E0E06800B30120A84916
:100A20000860FFF753FD054606E0FFF74FFD401B4A
:100A3000022801D9032047E7A04808380068C0F31E
:100A400040000028F1D09D480838006820F0F800E8
:100A5000216940EAC10099490839086014E0002082
:100A600097490860FFF732FD054606E0FFF72EFDC7
:100A7000401B022801D9032026E790480838006867
:100A8000C0F340000028F1D1207800F008000828C9
:100A90002CD16069A8B101208A490860FFF716FDD2
:100AA000054606E0FFF712FD401B022801D903208E
:100AB0000AE782486C300068C0F340000028F1D09B
:100AC00014E000207F490860FFF700FD054606E0BE
:100AD000FFF7FCFC401B022801D90320F4E677480D
:100AE0006C300068C0F340000028F1D1207800F09D
:100AF0000400042870D1002770483830006800F0E6
:100B0000805090B900BF002000906C4838300068D9
:100B100040F080506949383108600846006800F0AC
:100B20008050009000BF00BF01276748006800F4B4
:100B30008070B0B96448006840F480706249086011
:100B4000FFF7C4FC054606E0FFF7C0FC401B022887
:100B500001D90320B8E65C48006800F480700028E2
:100B6000F2D000BFA068012808D15448683000685E
:100B700040F001005149683108601DE0A068052877
:100B80000DD14E486830006840F004004B49683190
:100B900008600846006840F0010008600CE0474823
:100BA0006830006820F00100444968310860084658
:100BB000006820F00400086000BFA068A8B1FFF73B
:100BC00085FC054609E0FFF781FC401B41F28831B6
:100BD000884202D9032077E626E03848683000686A
:100BE000C0F340000028EED013E0FFF76FFC05468D
:100BF00008E0FFF76BFC401B41F28831884201D9C5
:100C0000032061E62D4868300068C0F340000028EA
:100C1000EFD1012F07D129483830006820F08050EB
:100C200026493831086000BFA069002845D0234814
:100C3000006800F00C0008285DD0A069022845D1AA
:100C400000201F490866FFF741FC054606E0FFF754
:100C50003DFC401B022801D9032035E6174808381F
:100C60000068C0F340600028F1D1D4E907010843CF
:100C7000616A40EA81110122A06AC2EB500041EA98
:100C800000412C20005D41EA00600C49091F08600A
:100C900001200B490866FFF719FC054606E0FFF73F
:100CA00015FC401B022801D903200DE60348083833
:100CB0000068C0F340600028F1D03FE008380240EF
:100CC00000004742800E47420070004000201C494F
:100CD0000866FFF7FBFB054606E0FFF7F7FB401B46
:100CE000022801D90320EFE516480068C0F34060F0
:100CF0000028F2D122E0A069012800D1E4E51148E2
:100D0000001D066806F48001E069814214D106F0F6
:100D10003F01206A81420FD147F6C0703040616ABE
:100D2000884209D106F44031A06A814204D106F01C
:100D30007061E06A814201D00120C5E50020C3E571
:100D40000000474200380240042808D14FF0E0215B
:100D5000096941F004014FF0E022116107E04FF012
:100D6000E021096921F004014FF0E0221161704790
:100D700070B504462546681EB0F1807F01D301207E
:100D80000FE0681E4FF0E02148610F214FF0FF3067
:100D900000F000FE00204FF0E0218861072008618C
:100DA000002070BD704701460022002391F83920D1
:100DB00091F83A3042EA0300704700002DE9F0470D
:100DC0000446206805682068C668206847694FF0B7
:100DD0000008C14605F00F08B8F1000F0AD105F070
:100DE000200038B106F0200020B1204600F00AFBB8
:100DF000BDE8F087B8F1000F72D007F0010018B914
:100E000006F4907000286BD005F0010030B106F4B4
:100E1000807018B1E06B40F00100E06305F0040061
:100E200030B107F0010018B1E06B40F00200E06360
:100E300005F0020030B107F0010018B1E06B40F09E
:100E40000400E06305F0080048B106F0200010B986
:100E500007F0010018B1E06B40F00800E063E06BC0
:100E600070B305F0200028B106F0200010B1204634
:100E700000F0C8FA20684069C0F38019E06B00F008
:100E8000080010B9B9F1000F23D0204600F09AFAFB
:100E90002068406900F04000402816D12068406971
:100EA00020F0400021684861606B50B11748616BC9
:100EB0000865606BFFF7E9F910B1606B016D884759
:100EC0000CE02046FFF76EFF08E02046FFF76AFFC0
:100ED00004E02046FFF766FF0020E06388E7FFE7B5
:100EE00005F0800030B106F0800018B1204600F017
:100EF000D1FC7DE705F0400030B106F0400018B1AC
:100F0000204600F06FFA73E700BF71E7B1130008E5
:100F100010B504460CB9012010BDA06900B100E075
:100F200000BF94F8390028B9002084F83800204622
:100F300000F028F8242084F839002068C06820F4E4
:100F400000502168C860204600F0B0FA20680069AF
:100F500020F49040216808612068406920F02A0050
:100F6000216848612068C06840F400502168C8606A
:100F70000020E063202084F8390084F83A00002043
:100F8000CAE7000010B586B004461F4920688842B1
:100F900038D100BF002000901C48006840F00100DC
:100FA0001A4908600846006800F00100009000BF80
:100FB00000BF00BF0020009014481430006840F0CB
:100FC00010001249143108600846006800F0100053
:100FD000009000BF00BF4FF4C0600190022002905B
:100FE00001200390022004900720059001A90848E1
:100FF000FFF760F92520FFF7C0FA032211462520EC
:10100000FFF7CBFA06B010BD0010014030380240A7
:101010000000024010B5034693F83A0020282FD173
:1010200001B10AB9012010BD00BF93F838000128B2
:1010300001D10220F7E7012083F8380000BF996250
:101040009A85DA850020D863222083F83A0000BF11
:10105000002083F8380000BF1868C06840F4807032
:101060001C68E0601868406940F001001C6860611D
:101070001868C06840F020001C68E0600020D2E7DB
:101080000220D0E71D4A0168914236D11C490988E7
:1010900001F4004189BB1A49098801F4804171B10A
:1010A000184909780A2903D00021154A118024E043
:1010B0001349098841F40041114A11801DE011498A
:1010C00009780D2906D10E49098841F480410C4A5E
:1010D000118012E00B490978094A1288C2F30D0207
:1010E000094B995406490988491C054A1180114643
:1010F0000988C72901DD00211180704700100140D7
:1011000016000020140000206C0000207047000032
:1011100010B504464FF4167000F06CFC054800F062
:1011200055F80548006808B9012000E00020024990
:10113000086010BD18000020A882424210B5044685
:1011400020684068C0F3402058B12068806800F0F3
:10115000010030B16FF00100216888602046FFF780
:10116000D7FF10BD10B504460CB9012010BD2046B4
:1011700000F00EF8E06840F08000216808606168C7
:1011800020690843A1680843216848600020EDE712
:1011900038B5044600BF002000900B48006840F4BA
:1011A0000060094908600846006800F4006000908B
:1011B00000BF00BF032202210020FFF7EEF900204C
:1011C000FFF7DBF938BD00004038024001460A68ED
:1011D000C86810600020704700BFFEE700B587B008
:1011E00000BF002001901E48006840F020001C490C
:1011F00008600846006800F02000019000BF00BFB2
:1012000000BF002001900846006840F02000086000
:101210000846006800F02000019000BF00BF48159C
:1012200002900120039004900320059002A90D482C
:10123000FFF740F84FF4806002900320059002A968
:101240000848FFF737F8012251020648FFF732F944
:10125000012291020348FFF72DF907B000BD0000FD
:10126000303802400014024000BFFEE7704770476C
:10127000704710B5FFF730F910BD000010B50446F7
:101280000420FFF761FD0148046010BD100000203C
:101290002DE9F04192B080460C4615461E460027C7
:1012A00000BF002000902A48006840F08050284984
:1012B00008600846006800F08050009000BF00BF42
:1012C00000BF002000902348006840F4804021497E
:1012D00008600846006800F48040009000BF00BF2E
:1012E000012006900004079002200C9041050D910A
:1012F000CDF838800F941095119606A8FFF7E0FA04
:1013000007460FB100BFFEE70F20019002200290B8
:10131000002003904FF4A05004904FF480500590AB
:10132000052101A8FFF78CF907460FB100BFFEE7C2
:10133000FFF7C6F841F20101884205D1064800686E
:1013400040F480700449086012B0BDE8F0810000EC
:101350004038024000700040003C024005480068F0
:1013600040F47000034908604FF000600149803983
:101370000860704788ED00E010B5044609480A4946
:1013800008600846446000218160C160016181619C
:101390000C214161FFF7BCFD012204490248FFF71F
:1013A00039FE10BD001001402C0000201400002068
:1013B00070B50546AC6B0020E085E0842046FFF761
:1013C000F1FC70BD0168C96821F490710268D160B8
:1013D0000168496921F0010102685161202180F80A
:1013E0003A10704710B504462068C06820F04000ED
:1013F0002168C860202084F839002046FFF786FE67
:10140000002010BD70B5044694F83A0022284AD155
:10141000A068B0F5805F13D1A56A206940B9206843
:101420004068C0F308002880A06A801CA06219E010
:1014300020684068C0B22880A06A401CA06211E009
:10144000206938B920684068C1B2A26A501CA06205
:10145000117007E02068406800F07F01A26A501C0C
:10146000A0621170E08D401E80B2E085C8B920688E
:10147000C06820F020002168C8602068C06820F49F
:1014800080702168C8602068406920F001002168F0
:101490004861202084F83A002046FFF7F3FD002041
:1014A00070BD0020FCE70220FAE700002DE9F84FAC
:1014B00004462068006920F44050E1680843216830
:1014C00008612169A068084361690843E16908432C
:1014D00000902068C06849F20C6188430099084375
:1014E0002168C8602068406920F44070A169084301
:1014F00021684861E069B0F5004F75D1E349206883
:10150000884203D0E249206888426FD1FFF770F922
:10151000814602206168A0FB01510B461920A9FBFE
:1015200000712A463846FEF74BFE6421B0FBF1F00D
:101530004FEA001A02206168A0FB01510B461920F6
:10154000A9FB00712A463846FEF73AFE07460220FC
:101550006168A0FB01510B461920A9FB00B12A4686
:101560005846FEF72DFE6421B0FBF1F000EBC00100
:1015700001EB0010A7EB8000322101EBC0006421D9
:10158000B0FBF1F000F0F8000AEB400A02206168BD
:10159000A0FB01510B461920A9FB00712A463846D1
:1015A000FEF70EFE074602206168A0FB01510B46C4
:1015B0001920A9FB00B12A465846FEF701FE642116
:1015C000B0FBF1F000EBC00101EB0010A7EB8000D5
:1015D000322101EBC0006421B0FBF1F000F0070004
:1015E0005044216888604FE16EE0FFE7FFF7F0F8B4
:1015F000814602206168A0FB01510B461920A9FB1E
:1016000000712A463846FEF7DBFD6421B0FBF1F09D
:101610004FEA001A02206168A0FB01510B46192015
:10162000A9FB00712A463846FEF7CAFD074602208C
:101630006168A0FB01510B461920A9FB00B12A46A5
:101640005846FEF7BDFD6421B0FBF1F000EBC00190
:1016500001EB0010A7EB8000322101EBC0006421F8
:10166000B0FBF1F000F0F8000AEB400A02206168DC
:10167000A0FB01510B461920A9FB00712A463846F0
:10168000FEF79EFD074602206168A0FB015003465D
:101690001920A9FB00B12A465846FEF791FD6421A6
:1016A000B0FBF1F000EBC00101EB0010A7EB8000F4
:1016B000322101EBC0006421B0FBF1F000F0070023
:1016C000504421688860DFE070492068884203D078
:1016D0006F49206888426BD1FFF78AF88146042061
:1016E0006168A0FB01510B461920A9FB00712A4635
:1016F0003846FEF765FD824604206168A0FB015173
:101700000B461920A9FB00712A463846FEF758FD02
:101710006421B0FBF1F000EBC00101EB0010AAEB7B
:101720008000322101EB00106421B0FBF1F000F0E9
:10173000F00A04206168A0FB015003461920A9FBB0
:1017400000712A463846FEF73BFD6421B0FBF1F0FC
:101750000AEB001A04206168A0FB01510B46192016
:10176000A9FB00712A463846FEF72AFD07460420E9
:101770006168A0FB015003461920A9FB00B12A466D
:101780005846FEF71DFD6421B0FBF1F000EBC001EF
:1017900001EB0010A7EB8000322101EB0010642167
:1017A000B0FBF1F000F00F005044216888606BE05E
:1017B000FFF70EF8814604206168A0FB0150034644
:1017C0001920A9FB00712A463846FEF7F9FC82462B
:1017D00004206168A0FB015003461920A9FB007199
:1017E0002A463846FEF7ECFC6421B0FBF1F000EB32
:1017F000C00101EB0010AAEB8000322101EB0010C8
:101800006421B0FBF1F000F0F00A04206168A0FB55
:10181000015003461920A9FB00712A463846FEF7FD
:10182000CFFC6421B0FBF1F00AEB001A04206168E0
:10183000A0FB017003461920A9FB005001463A465F
:101840002846FEF7BDFC074604206168A0FB015056
:1018500003461920A9FB00B12A465846FEF7B0FC02
:101860006421B0FBF1F000EBC00101EB0010A7EB2D
:101870008000322101EB00106421B0FBF1F000F098
:101880000F00504421688860BDE8F88F00100140C7
:1018900000140140014691F8390021282CD18868B4
:1018A000B0F5805F0FD10A6A1088C0F308000B689A
:1018B0005860086918B9086A801C086209E0086A5B
:1018C000401C086205E00B6A581C086218780B6817
:1018D0005860C88C401E80B2C88458B90868C06877
:1018E00020F080000B68D8600868C06840F04000B5
:1018F0000B68D860002070470220FCE710B5002478
:101900000E48FFF75BFA00BF03E0641C601C00B9DF
:1019100004E00A48FFF747FA2028F6D100BF002468
:1019200003E0641C601C00B906E00122044903487E
:10193000FFF770FB0028F4D100BF10BD2C00002081
:101940001400002000BFFEE710B50248FFF7F6FBC9
:1019500010BD00001800002070B504460E46154664
:10196000064807490860084645608660C4604FF431
:1019700000710161FFF7F6FB70BD0000002C004014
:101980001800002002480068C0F3022070470000E1
:101990000CED00E010B5002804DB0A07130E054A21
:1019A000135406E00A07140E034A00F00F031B1F2E
:1019B000D45410BD00E400E018ED00E002E008C8D7
:1019C000121F08C1002AFAD170477047002001E0B9
:1019D00001C1121F002AFBD1704710B5044603E075
:1019E0004FF47A7000F006F8201EA4F101018CB2C9
:1019F000F6D110BD70B5034600224FF0E026B56960
:101A0000B1690C4E366803FB06F410E04FF0E02697
:101A1000B06981420BD0814202D90E1A324402E0F1
:101A20002E1A0E4432440146A24200D300E0EDE7F4
:101A300000BF70BD10000020FEF75AFD07230222F0
:101A40004FF4A8710820FFF723FCA820FFF716FC2D
:101A5000FFF7C4FB4FF4E130FFF78EFC002008498C
:101A600008604FF4FA70FFF7B8FF4FF4C0725F21BF
:101A70007F20FFF771FF02E0012001490860FBE7CA
:101A8000A4824242000000000000000001020304A2
:101A9000060708090000000001020304BC1A000840
:101AA0000000002018000000BC190008D41A00082B
:101AB0001800002020050000CC1900080024F400C4
:101AC0000000000010000000010000000000000005
:041AD0000000000012
:040000050800018965
:00000001FF
