:020000040800F2
:10000000B00400209D010008A11200080B12000896
:100010009D120008D9020008D11600080000000057
:10002000000000000000000000000000A512000811
:10003000DD02000800000000A3120008A71200085B
:10004000B7010008B7010008B7010008B7010008B0
:10005000B7010008B7010008DF020008B701000877
:10006000E9020008F3020008FD020008B7010008D9
:10007000B7010008B7010008B7010008B701000880
:10008000B7010008B7010008B7010008B701000870
:10009000B7010008B7010008B7010008B701000860
:1000A000B7010008B7010008B7010008B701000850
:1000B000B70100080D140008B7010008B7010008D7
:1000C000B7010008B7010008B7010008B701000830
:1000D000B7010008B7010008B7010008B701000820
:1000E000B7010008B7010008B7010008B701000810
:1000F000B7010008B7010008B7010008B701000800
:10010000B7010008B7010008B7010008B7010008EF
:10011000B7010008B7010008B7010008B7010008DF
:10012000B7010008B7010008B7010008B7010008CF
:10013000B7010008B7010008B7010008B7010008BF
:10014000B7010008B7010008B7010008B7010008AF
:10015000B7010008B7010008B7010008B70100089F
:10016000B7010008B7010008B7010008B70100088F
:10017000B7010008B7010008B7010008000000003F
:10018000B7010008B7010008DFF80CD000F068F8EC
:100190000048004789170008B0040020064880473F
:1001A00006480047FEE7FEE7FEE7FEE7FEE7FEE75C
:1001B000FEE7FEE7FEE7FEE791130008890100086D
:1001C0002DE9F05F0546002092469B46884606468C
:1001D000814640241BE0284641464746224600F01F
:1001E0002FF853465A46C01A914110D3114618466B
:1001F000224600F016F82D1A67EB01084F462246FA
:100200000120002100F00DF817EB00094E41201EDF
:10021000A4F10104DFDC484631462A464346BDE8E6
:10022000F09F202A04DB203A00FA02F100207047F8
:100230009140C2F1200320FA03F319439040704724
:10024000202A04DB203A21FA02F00021704721FA2B
:1002500002F3D040C2F12002914008431946704792
:10026000064C074D06E0E06840F0010394E8070003
:1002700098471034AC42F6D3FFF78AFFF417000812
:100280001418000800B587B000BF00200190104886
:10029000006840F020000E4908600846006800F041
:1002A0002000019000BF00BF88150290012003903C
:1002B00004900320059002A9064800F07BF8002274
:1002C0004FF48071034800F075F907B000BD0000DD
:1002D000303802400014024000BFFEE7704710B5FE
:1002E000012000F059F810BD10B5042000F054F8BA
:1002F00010BD10B5082000F04FF810BD10B510204B
:1003000000F04AF810BD000010B504460A2001F0C4
:100310000CFA012C06D0042C2DD0082C1CD0102C4B
:1003200032D10BE01948006838B11948006808B9A3
:10033000012000E000201649086025E0154800680B
:1003400048B91348001D006808B9012000E00020EA
:100350000F49091D086017E00E48001F006848B9E2
:100360000B48001F006808B9012000E00020084980
:10037000091F086008E007480838006808B900F05D
:1003800047FFFFF77FFF00BF00BF10BD00024042E4
:10039000A48242421002424210B50446044800685A
:1003A000204020B1024804602046FFF7ADFF10BD99
:1003B000143C0140F8B502460B46002500240020FD
:1003C0000021DCE0012606FA01F51E6806EA0504B4
:1003D000AC4273D15E68012E08D05E68022E05D053
:1003E0005E68112E02D05E68122E13D190684F0005
:1003F0000326BE40B0434F00DE68BE4030439060ED
:10040000506801268E40B0431E79C6F300168E4018
:1004100030435060D0684F000326BE40B0434F00C9
:100420009E68BE403043D0605E68022E02D05E6897
:10043000122E13D1CF0802F1200656F827004E07DE
:10044000F70E0F26BE40B0434F07FF0E1E69BE4099
:100450003043CF0802F1200646F8270010684F000D
:100460000326BE40B0431E7906F003064F00BE408F
:10047000304310605E6806F08056B6F1805F7DD133
:1004800000BF00260096404E366846F480463E4F38
:100490003E603E46366806F48046009600BF00BFC8
:1004A0003A4E8F0856F827008E07370F0F26BE40AA
:1004B000B043374EB24202D1002624E05EE0354E12
:1004C000B24201D101261EE0334EB24201D10226D2
:1004D00019E0324EB24201D1032614E0304EB2424E
:1004E00001D104260FE02F4EB24201D105260AE0C9
:1004F0002D4EB24201D1062605E02C4EB24201D16A
:10050000072600E008268F073F0FBE4030431F4EEE
:100510008F0846F82700264E3068A0435E6806F430
:100520008036B6F5803F00D12043214E3060361D25
:100530003068A0435E6806F40036B6F5003F00D18F
:1005400020431B4E361D3060361D3068A0435E6868
:1005500006F48016B6F5801F00D12043144E0836ED
:100560003060361D3068A0435E6806F40016B6F5AC
:10057000001F00D120430E4E0C363060491C10295C
:10058000FFF420AFF8BD00004438024008380140B5
:10059000000002400004024000080240000C02403B
:1005A000001002400014024000180240001C0240EB
:1005B000003C01400AB1816101E00B048361704796
:1005C00001480068000C7047002004E00148006802
:1005D00070470000040000200348006803490978C0
:1005E0000844014908607047040000200C00002006
:1005F00010B50D48006840F400700B4908600846CB
:10060000006840F4806008600846006840F480702C
:100610000860052000F070F80F2000F007F800F0E7
:100620002BF8002010BD0000003C024070B50446CD
:100630000E4800784FF47A71B1FBF0F00C4909686C
:10064000B1FBF0F5284600F0DDFB08B1012070BDDC
:10065000102C07D200222146501E00F00EF805484B
:10066000046001E00120F2E70020F0E70C00002028
:10067000000000200800002070472DE9F05F804650
:100680000D461646002701F025F8074639462A464A
:10069000334601F00700C0F1070ABAF1040F02D98E
:1006A0004FF0040A01E0C0F1070AD14600F1040A44
:1006B000BAF1070F02D24FF0000A01E0A0F1030ADD
:1006C000D4464FF0010A0AFA09FAAAF1010A0AEA25
:1006D000020A0AFA0CFA4FF0010B0BFA0CFBABF111
:1006E000010B0BEA030B4AEA0B042146404600F0DB
:1006F000F9FFBDE8F09F000000BF00F00702064BC5
:1007000019684FF6FF031940044B0B4343EA0221DB
:10071000014B196000BF70470CED00E00000FA05C6
:1007200070B504460D460CB9012070BD58480068EC
:1007300000F00F00A84209D255490D700846006824
:1007400000F00F00A84201D00120EEE7207800F071
:10075000020002281DD1207800F00400042805D1F1
:100760004C48006840F4E0504A490860207800F0A6
:100770000800082805D14748006840F46040454912
:1007800008604448006820F0F000A168084341492F
:100790000860207800F00100A8B36068012807D144
:1007A0003C4808380068C0F34040B8B90120BCE7B5
:1007B0006068022802D06068032807D135480838ED
:1007C0000068C0F3406048B90120AEE731480838FE
:1007D0000068C0F3400008B90120A6E72D48006872
:1007E00020F00300616808432A490860FFF7EEFE25
:1007F000064609E0FFF7EAFE801B41F28831884295
:1008000002D9032091E707E02248006800F00C00BD
:100810006168B0EB810FEDD11D48006800F00F005A
:10082000A84209D91A490D700846006800F00F0067
:10083000A84201D0012078E7207800F004000428C5
:1008400007D11448006820F4E050E16808431149DA
:100850000860207800F00800082808D10D480068DA
:1008600020F46040216940EAC1000A49086000F0B4
:1008700019F808490968C1F30311074A515CC840D7
:100880000649086006480068FFF7D0FE00204CE7E4
:10089000003C024008380240DA170008000000203F
:1008A000080000202DE9F047002400250026A1467D
:1008B0002548006800F00C0020B1042805D0082865
:1008C0003AD105E0DFF8849039E0DFF8849036E033
:1008D0001D48001F006800F03F041B48001F00680F
:1008E00000F4800078B11A481749091F0968C1F35C
:1008F0008811A0FB01700146224600233846FFF70D
:100900005FFC05460EE011480F49091F0968C1F355
:100910008811A0FB01700146224600233846FFF7EC
:100920004FFC05460848001F0068C0F30140401C0A
:100930004600B5FBF6F902E0DFF8109000BF00BFFB
:100940004846BDE8F0870000083802400024F40063
:1009500000127A00F8B504460CB90120F8BD2078E1
:1009600000F00100002874D0F948006800F00C0085
:1009700004280DD0F648006800F00C00082813D1B8
:10098000F348001F006800F48000B0F5800F0BD121
:10099000EF4808380068C0F34040002859D060682C
:1009A000002856D10120D9E700BF6068B0F5803F2C
:1009B00008D1E7480838006840F48030E449083935
:1009C00008601EE06068B0F5A02F0DD1E04808383F
:1009D000006840F48020DE49083908600846006855
:1009E00040F4803008600CE0D9480838006820F4F2
:1009F0008030D749083908600846006820F4802014
:100A0000086000BF606890B1FFF7E0FD054606E0B2
:100A1000FFF7DCFD401B642801D903209EE7CC488A
:100A200008380068C0F340400028F1D011E0FFF71B
:100A3000CDFD054606E0FFF7C9FD401B642801D93E
:100A400003208BE7C24808380068C0F34040002804
:100A5000F1D1207800F0020002285FD1BC48006884
:100A600000F00C0058B1BA48006800F00C000828EB
:100A70001CD1B748001F006800F48000B0B9B4482A
:100A800008380068C0F3400020B1E068012801D0B8
:100A9000012063E7AE480838006820F0F8002169BB
:100AA00040EAC100AA490839086037E0E06800B3AD
:100AB0000120A8490860FFF789FD054606E0FFF719
:100AC00085FD401B022801D9032047E7A0480838CC
:100AD0000068C0F340000028F1D09D480838006845
:100AE00020F0F800216940EAC100994908390860FE
:100AF00014E0002097490860FFF768FD054606E00E
:100B0000FFF764FD401B022801D9032026E7904827
:100B100008380068C0F340000028F1D1207800F0C8
:100B2000080008282CD16069A8B101208A49086012
:100B3000FFF74CFD054606E0FFF748FD401B022885
:100B400001D903200AE782486C300068C0F34000F6
:100B50000028F1D014E000207F490860FFF736FD3F
:100B6000054606E0FFF732FD401B022801D90320AD
:100B7000F4E677486C300068C0F340000028F1D1FB
:100B8000207800F00400042870D100277048383025
:100B9000006800F0805090B900BF002000906C48C1
:100BA0003830006840F080506949383108600846A4
:100BB000006800F08050009000BF00BF0127674828
:100BC000006800F48070B0B96448006840F4807038
:100BD00062490860FFF7FAFC054606E0FFF7F6FCFD
:100BE000401B022801D90320B8E65C48006800F4E5
:100BF00080700028F2D000BFA068012808D15448B6
:100C00006830006840F001005149683108601DE01B
:100C1000A06805280DD14E486830006840F00400F7
:100C20004B49683108600846006840F001000860E0
:100C30000CE047486830006820F001004449683102
:100C400008600846006820F00400086000BFA06843
:100C5000A8B1FFF7BBFC054609E0FFF7B7FC401B56
:100C600041F28831884202D9032077E626E03848ED
:100C700068300068C0F340000028EED013E0FFF7B2
:100C8000A5FC054608E0FFF7A1FC401B41F28831B6
:100C9000884201D9032061E62D4868300068C0F31E
:100CA00040000028EFD1012F07D1294838300068D3
:100CB00020F0805026493831086000BFA069002824
:100CC00045D02348006800F00C0008285DD0A069DA
:100CD000022845D100201F490866FFF777FC05462A
:100CE00006E0FFF773FC401B022801D9032035E61C
:100CF000174808380068C0F340600028F1D1D4E9F3
:100D000007010843616A40EA81110122A06AC2EB2F
:100D1000500041EA00412C20005D41EA00600C498E
:100D2000091F086001200B490866FFF74FFC0546C4
:100D300006E0FFF74BFC401B022801D903200DE61B
:100D4000034808380068C0F340600028F1D03FE055
:100D50000838024000004742800E474200700040C1
:100D600000201C490866FFF731FC054606E0FFF746
:100D70002DFC401B022801D90320EFE5164800682E
:100D8000C0F340600028F2D122E0A069012800D120
:100D9000E4E51148001D066806F48001E06981421F
:100DA00014D106F03F01206A81420FD147F6C0708E
:100DB0003040616A884209D106F44031A06A81421C
:100DC00004D106F07061E06A814201D00120C5E5DE
:100DD0000020C3E50000474200380240042808D143
:100DE0004FF0E021096941F004014FF0E022116168
:100DF00007E04FF0E021096921F004014FF0E02203
:100E00001161704770B504462546681EB0F1807FB9
:100E100001D301200FE0681E4FF0E02148610F214F
:100E20004FF0FF3000F05EFC00204FF0E0218861C1
:100E300007200861002070BD70477047704710B5EB
:100E4000044620680069C0F34000D8B12068C0683B
:100E5000C0F34000B0B16FF00200216808610120CA
:100E600020772068806900F0030018B12046FFF762
:100E7000E5FF05E0204600F0ADF8204600F084F9DB
:100E80000020207720680069C0F38000D8B1206876
:100E9000C068C0F38000B0B16FF004002168086141
:100EA000022020772068806900F4407018B1204645
:100EB000FFF7C4FF05E0204600F08CF8204600F064
:100EC00063F90020207720680069C0F3C000D8B122
:100ED0002068C068C0F3C000B0B16FF0080021689E
:100EE0000861042020772068C06900F0030018B171
:100EF0002046FFF7A3FF05E0204600F06BF82046F0
:100F000000F042F90020207720680069C0F300104B
:100F1000D8B12068C068C0F30010B0B16FF0100005
:100F200021680861082020772068C06900F44070BB
:100F300018B12046FFF782FF05E0204600F04AF88E
:100F4000204600F021F9002020772068006900F099
:100F5000010058B12068C06800F0010030B16FF0A6
:100F6000010021680861204600F03CF92068006912
:100F7000C0F3C01058B12068C068C0F3C01030B1D1
:100F80006FF08000216808612046FFF755FF206858
:100F90000069C0F3801058B12068C068C0F38010A9
:100FA00030B16FF0400021680861204600F02CF954
:100FB00020680069C0F3401058B12068C068C0F3D1
:100FC000401030B16FF02000216808612046FFF723
:100FD00034FF10BD704770B504460D46164600BF7D
:100FE00094F83C00012801D1022070BD012084F852
:100FF0003C0000BF022084F83D0036B1042E1BD017
:10100000082E31D00C2E5ED145E02946206800F034
:1010100083FA2068806940F00800216888612068B0
:10102000806920F00400216888612068806929694E
:1010300008432168886147E02946206800F0A4FA47
:101040002068806940F400602168886120688069B8
:1010500020F480602168886120688069296940EAFD
:101060000120216888612FE02946206800F0CAFA33
:101070002068C06940F008002168C8612068C06924
:1010800020F004002168C8612068C069296908430C
:101090002168C86118E02946206800F0EFFA20684E
:1010A000C06940F400602168C8612068C06920F40C
:1010B00080602168C8612068C069296940EA012010
:1010C0002168C86100E000BF00BF012084F83D0036
:1010D00000BF002084F83C0000BF00BF85E710B5CA
:1010E00004460CB9012010BD94F83D0028B9002039
:1010F00084F83C00204600F00DF8022084F83D0002
:10110000211D206800F08AF9012084F83D000020AC
:10111000E9E7000010B586B0044600BF002000904B
:101120001748006840F0200015490860084600682C
:1011300000F02000009000BF00BF00BF0020009022
:101140000F481030006840F480700D49103108607D
:101150000846006800F48070009000BF00BF48158A
:1011600001900220029001200390032004900920A6
:10117000059001A90348FFF71DF906B010BD000056
:1011800030380240001402407047000070B5044639
:101190000E4601223146206800F0ACF90F49206864
:1011A000884203D00E492068884201D1012000E026
:1011B000002028B12068406C40F400402168486459
:1011C0002068806800F00705062D05D020680068BB
:1011D00040F0010021680860002070BD000001405F
:1011E00000040140064A0168914207D10549096897
:1011F00009B9012100E00021024A11607047000096
:1012000000040040A4824242704700BFFEE7000095
:1012100000B587B000BF002001901E48006840F074
:1012200020001C4908600846006800F0200001907A
:1012300000BF00BF00BF002001900846006840F0DA
:10124000200008600846006800F02000019000BF00
:1012500000BF4815029001200390049003200590E0
:1012600002A90D48FFF7A6F84FF480600290032012
:10127000059002A90848FFF79DF80122510206488F
:10128000FFF798F9012291020348FFF793F907B09D
:1012900000BD0000303802400014024000BFFEE7ED
:1012A00070477047704710B5FFF796F910BD000002
:1012B00010B504460420FFF791FD0148046010BDFD
:1012C000100000202DE9F04192B080460C461546F2
:1012D0001E46002700BF002000902A48006840F00A
:1012E0008050284908600846006800F0805000904F
:1012F00000BF00BF00BF002000902348006840F4FA
:101300008040214908600846006800F48040009051
:1013100000BF00BF012006900004079002200C903F
:1013200041050D91CDF838800F941095119606A8BF
:10133000FFF710FB07460FB100BFFEE70F2001903B
:1013400002200290002003904FF4A05004904FF42C
:1013500080500590052101A8FFF7E2F907460FB17B
:1013600000BFFEE7FFF72CF941F20101884205D1E9
:101370000648006840F480700449086012B0BDE877
:10138000F08100004038024000700040003C024004
:101390000548006840F47000034908604FF00060A1
:1013A000014980390860704788ED00E070B5044657
:1013B0000D461048104908600846456000218160CC
:1013C000C4600161FFF78BFE60200C490860204675
:1013D00004EBD0714910094A51600220114688601F
:1013E00000220548FFF7F7FD00210348FFF7CEFE76
:1013F00070BD000000200040540000209400002038
:1014000001494863704700000020004010B50248C1
:10141000FFF715FD10BD00001400002010B5026894
:10142000294B98420ED0B0F1804F0BD0274B9842F9
:1014300008D0274B984205D0264B984202D0264B25
:10144000984203D122F070024B681A431E4B984217
:1014500020D0B0F1804F1DD01C4B98421AD01C4BAD
:10146000984217D01B4B984214D01B4B984211D076
:101470001A4B98420ED01A4B98420BD0194B9842F7
:1014800008D0194B984205D0184B984202D0184BFF
:10149000984203D122F44072CB681A4322F08003B1
:1014A0004C6943EA040202608B68C3620B68836282
:1014B000054B984202D0084B984201D10B69036357
:1014C0000123436110BD0000000001400004004002
:1014D00000080040000C00400004014000400140B2
:1014E000004401400048014000180040001C00403A
:1014F0000020004030B501F01F05012404FA05F377
:10150000046A9C430462046A01F01F0502FA05F5AF
:101510002C43046230BD000030B5056A25F001059A
:101520000562026A4368846924F0700424F00304AD
:101530000D682C4322F002028D682A43104DA84208
:1015400000D103E00F4DA84206D100BF22F00802EF
:10155000CD682A4322F00402094DA84202D0094D69
:10156000A84207D123F4807323F400734D692B4301
:101570008D692B43436084614D684563026230BDD1
:10158000000001400004014030B5056A25F0100557
:101590000562026A4368846924F4E04424F44074D8
:1015A0000D6844EA052422F020028D6842EA051203
:1015B000124DA84200D103E0114DA84207D100BF4F
:1015C00022F08002CD6842EA051222F040020B4D63
:1015D000A84202D00A4DA84209D123F4806323F423
:1015E00000634D6943EA85038D6943EA85034360DF
:1015F00084614D688563026230BD000000000140D7
:101600000004014030B5056A25F480750562026A60
:101610004368C46924F0700424F003040D682C436B
:1016200022F400728D6842EA0522124DA84200D1D0
:1016300003E0114DA84207D100BF22F40062CD683B
:1016400042EA052222F480620A4DA84202D00A4DE5
:10165000A84209D123F4805323F400534D6943EA8F
:1016600005138D6943EA05134360C4614D68C56382
:10167000026230BD000001400004014030B5056A3F
:1016800025F480550562036A4468C26922F4E04289
:1016900022F440720D6842EA052223F400538D685B
:1016A00043EA0533084DA84202D0084DA84204D1B0
:1016B00024F480444D6944EA85144460C2614D6855
:1016C0000564036230BD00000000014000040140D9
:1016D00000BFFEE702480068C0F302207047000028
:1016E0000CED00E010B5002804DB0A07130E054AD4
:1016F000135406E00A07140E034A00F00F031B1FE1
:10170000D45410BD00E400E018ED00E002E008C889
:10171000121F08C1002AFAD170477047002001E06B
:1017200001C1121F002AFBD1704710B5044603E027
:101730004FF47A7000F006F8201EA4F101018CB27B
:10174000F6D110BD70B5034600224FF0E026B56912
:10175000B1690C4E366803FB06F410E04FF0E0264A
:10176000B06981420BD0814202D90E1A324402E0A4
:101770002E1A0E4432440146A24200D300E0EDE7A7
:1017800000BF70BD10000020FEF732FF07230222C9
:101790004FF4A8710820FFF795FDA820FFF788FDFA
:1017A000FFF736FD532140F2F310FFF7FFFD002451
:1017B000002511E02DB9641CB4F5967F06D10125F2
:1017C00004E0012D02D1641E04B900252046FFF774
:1017D00017FE0A20FFF7A9FFECE700000000000059
:1017E00000000102030406070809000000000102CE
:1017F000030400001418000800000020140000007A
:101800000C17000828180008140000209C04000091
:101810001C1700080024F400000000001000000065
:081820000100000000000000BF
:040000050800018965
:00000001FF
