:020000040800F2
:10000000180400209D010008ED0F0008590F00089A
:10001000E90F0008D9020008F910000800000000EC
:10002000000000000000000000000000F10F0008C8
:10003000DD02000800000000EF0F0008F30F0008C9
:10004000B7010008B7010008B7010008B7010008B0
:10005000B7010008B7010008DF020008B701000877
:10006000E9020008F3020008FD020008B7010008D9
:10007000B7010008B7010008B7010008B701000880
:10008000B7010008B7010008B7010008B701000870
:10009000B7010008B7010008B7010008B701000860
:1000A000B7010008B7010008B7010008B701000850
:1000B000B7010008B7010008B7010008B701000840
:1000C000B7010008B7010008B7010008B701000830
:1000D000B7010008B7010008B7010008B701000820
:1000E000B7010008B7010008B7010008B701000810
:1000F000B7010008B7010008B7010008B701000800
:10010000B7010008B7010008B7010008B7010008EF
:10011000B7010008B7010008B7010008B7010008DF
:10012000B7010008B7010008B7010008B7010008CF
:10013000B7010008B7010008B7010008B7010008BF
:10014000B7010008B7010008B7010008B7010008AF
:10015000B7010008B7010008B7010008B70100089F
:10016000B7010008B7010008B7010008B70100088F
:10017000B7010008B7010008B7010008000000003F
:10018000B7010008B7010008DFF80CD000F068F8EC
:1001900000480047B11100081804002006488047B5
:1001A00006480047FEE7FEE7FEE7FEE7FEE7FEE75C
:1001B000FEE7FEE7FEE7FEE7DD1000088901000824
:1001C0002DE9F05F0546002092469B46884606468C
:1001D000814640241BE0284641464746224600F01F
:1001E0002FF853465A46C01A914110D3114618466B
:1001F000224600F016F82D1A67EB01084F462246FA
:100200000120002100F00DF817EB00094E41201EDF
:10021000A4F10104DFDC484631462A464346BDE8E6
:10022000F09F202A04DB203A00FA02F100207047F8
:100230009140C2F1200320FA03F319439040704724
:10024000202A04DB203A21FA02F00021704721FA2B
:1002500002F3D040C2F12002914008431946704792
:10026000064C074D06E0E06840F0010394E8070003
:1002700098471034AC42F6D3FFF78AFFF01100081C
:100280001012000800B587B000BF00200190104890
:10029000006840F020000E4908600846006800F041
:1002A0002000019000BF00BF88150290012003903C
:1002B00004900320059002A9064800F0FBF80022F4
:1002C0004FF48071034800F0F5F907B000BD00005D
:1002D000303802400014024000BFFEE7704710B5FE
:1002E000012000F0D9F810BD10B5042000F0D4F8BA
:1002F00010BD10B5082000F0CFF810BD10B51020CB
:1003000000F0CAF810BD000000B587B000BF0020A3
:1003100001903848006840F00100364908600846FE
:10032000006800F00100019000BF00BF01200290B2
:10033000314803900220049002A9304800F0BAF836
:1003400000BF002001902B48006840F010002949B0
:1003500008600846006800F01000019000BF00BF70
:1003600000BF002001900846006840F010000860BF
:100370000846006800F01000019000BF00BF00BFF9
:10038000002001900846006840F010000860084610
:10039000006800F01000019000BF00BF1C20029018
:1003A000174803900120049002A9164800F082F833
:1003B00000220221062000F0F0F9062000F0DDF90D
:1003C00001220221082000F0E8F9082000F0D5F908
:1003D00002221146092000F0E0F9092000F0CDF9D1
:1003E000032202210A2000F0D8F90A2000F0C5F902
:1003F00007B000BD3038024000001110000002407C
:10040000000021100010024010B504460A2000F040
:10041000A0FE012C06D0042C2DD0082C1CD0102CB2
:1004200032D10BE01948006838B11948006808B9A2
:10043000012000E000201649086025E0154800680A
:1004400048B91348001D006808B9012000E00020E9
:100450000F49091D086017E00E48001F006848B9E1
:100460000B48001F006808B9012000E0002008497F
:10047000091F086008E007480838006808B900F05C
:100480006DFDFFF7FFFE00BF00BF10BD0002404240
:10049000A48242421002424210B504460448006859
:1004A000204020B1024804602046FFF7ADFF10BD98
:1004B000143C0140F8B502460B46002500240020FC
:1004C0000021DCE0012606FA01F51E6806EA0504B3
:1004D000AC4273D15E68012E08D05E68022E05D052
:1004E0005E68112E02D05E68122E13D190684F0004
:1004F0000326BE40B0434F00DE68BE4030439060EC
:10050000506801268E40B0431E79C6F300168E4017
:1005100030435060D0684F000326BE40B0434F00C8
:100520009E68BE403043D0605E68022E02D05E6896
:10053000122E13D1CF0802F1200656F827004E07DD
:10054000F70E0F26BE40B0434F07FF0E1E69BE4098
:100550003043CF0802F1200646F8270010684F000C
:100560000326BE40B0431E7906F003064F00BE408E
:10057000304310605E6806F08056B6F1805F7DD132
:1005800000BF00260096404E366846F480463E4F37
:100590003E603E46366806F48046009600BF00BFC7
:1005A0003A4E8F0856F827008E07370F0F26BE40A9
:1005B000B043374EB24202D1002624E05EE0354E11
:1005C000B24201D101261EE0334EB24201D10226D1
:1005D00019E0324EB24201D1032614E0304EB2424D
:1005E00001D104260FE02F4EB24201D105260AE0C8
:1005F0002D4EB24201D1062605E02C4EB24201D169
:10060000072600E008268F073F0FBE4030431F4EED
:100610008F0846F82700264E3068A0435E6806F42F
:100620008036B6F5803F00D12043214E3060361D24
:100630003068A0435E6806F40036B6F5003F00D18E
:1006400020431B4E361D3060361D3068A0435E6867
:1006500006F48016B6F5801F00D12043144E0836EC
:100660003060361D3068A0435E6806F40016B6F5AB
:10067000001F00D120430E4E0C363060491C10295B
:10068000FFF420AFF8BD00004438024008380140B4
:10069000000002400004024000080240000C02403A
:1006A000001002400014024000180240001C0240EA
:1006B000003C01400AB1816101E00B048361704795
:1006C00001480068000C7047002004E00148006801
:1006D00070470000040000200348006803490978BF
:1006E0000844014908607047040000200C00002005
:1006F00010B50D48006840F400700B4908600846CA
:10070000006840F4806008600846006840F480702B
:100710000860052000F080F80F2000F007F800F0D6
:100720002BF8002010BD0000003C024070B50446CC
:100730000E4800784FF47A71B1FBF0F00C4909686B
:10074000B1FBF0F5284600F0EDFB08B1012070BDCB
:10075000102C07D200222146501E00F01EF805483A
:10076000046001E00120F2E70020F0E70C00002027
:1007700000000020080000207047014608460028BD
:1007800009DB00F01F0301229A4043099B0003F19B
:10079000E023C3F8002100BF70472DE9F05F8046D9
:1007A0000D461646002700F0A9FC074639462A46A2
:1007B000334601F00700C0F1070ABAF1040F02D96D
:1007C0004FF0040A01E0C0F1070AD14600F1040A23
:1007D000BAF1070F02D24FF0000A01E0A0F1030ABC
:1007E000D4464FF0010A0AFA09FAAAF1010A0AEA04
:1007F000020A0AFA0CFA4FF0010B0BFA0CFBABF1F0
:10080000010B0BEA030B4AEA0B042146404600F0B9
:100810007DFCBDE8F09F000000BF00F00702064B22
:1008200019684FF6FF031940044B0B4343EA0221BA
:10083000014B196000BF70470CED00E00000FA05A5
:1008400070B504460D460CB9012070BD58480068CB
:1008500000F00F00A84209D255490D700846006803
:1008600000F00F00A84201D00120EEE7207800F050
:10087000020002281DD1207800F00400042805D1D0
:100880004C48006840F4E0504A490860207800F085
:100890000800082805D14748006840F460404549F1
:1008A00008604448006820F0F000A168084341490E
:1008B0000860207800F00100A8B36068012807D123
:1008C0003C4808380068C0F34040B8B90120BCE794
:1008D0006068022802D06068032807D135480838CC
:1008E0000068C0F3406048B90120AEE731480838DD
:1008F0000068C0F3400008B90120A6E72D48006851
:1009000020F00300616808432A490860FFF7DEFE13
:10091000064609E0FFF7DAFE801B41F28831884283
:1009200002D9032091E707E02248006800F00C009C
:100930006168B0EB810FEDD11D48006800F00F0039
:10094000A84209D91A490D700846006800F00F0046
:10095000A84201D0012078E7207800F004000428A4
:1009600007D11448006820F4E050E16808431149B9
:100970000860207800F00800082808D10D480068B9
:1009800020F46040216940EAC1000A49086000F093
:1009900019F808490968C1F30311074A515CC840B6
:1009A0000649086006480068FFF7C0FE00204CE7D3
:1009B000003C024008380240D81100080000002026
:1009C000080000202DE9F047002400250026A1465C
:1009D0002548006800F00C0020B1042805D0082844
:1009E0003AD105E0DFF8849039E0DFF8849036E012
:1009F0001D48001F006800F03F041B48001F0068EE
:100A000000F4800078B11A481749091F0968C1F33A
:100A10008811A0FB01700146224600233846FFF7EB
:100A2000CFFB05460EE011480F49091F0968C1F3C5
:100A30008811A0FB01700146224600233846FFF7CB
:100A4000BFFB05460848001F0068C0F30140401C7A
:100A50004600B5FBF6F902E0DFF8109000BF00BFDA
:100A60004846BDE8F0870000083802400024F40042
:100A700000127A00F8B504460CB90120F8BD2078C0
:100A800000F00100002874D0F948006800F00C0064
:100A900004280DD0F648006800F00C00082813D197
:100AA000F348001F006800F48000B0F5800F0BD100
:100AB000EF4808380068C0F34040002859D060680B
:100AC000002856D10120D9E700BF6068B0F5803F0B
:100AD00008D1E7480838006840F48030E449083914
:100AE00008601EE06068B0F5A02F0DD1E04808381E
:100AF000006840F48020DE49083908600846006834
:100B000040F4803008600CE0D9480838006820F4D0
:100B10008030D749083908600846006820F48020F2
:100B2000086000BF606890B1FFF7D0FD054606E0A1
:100B3000FFF7CCFD401B642801D903209EE7CC4879
:100B400008380068C0F340400028F1D011E0FFF7FA
:100B5000BDFD054606E0FFF7B9FD401B642801D93D
:100B600003208BE7C24808380068C0F340400028E3
:100B7000F1D1207800F0020002285FD1BC48006863
:100B800000F00C0058B1BA48006800F00C000828CA
:100B90001CD1B748001F006800F48000B0B9B44809
:100BA00008380068C0F3400020B1E068012801D097
:100BB000012063E7AE480838006820F0F80021699A
:100BC00040EAC100AA490839086037E0E06800B38C
:100BD0000120A8490860FFF779FD054606E0FFF708
:100BE00075FD401B022801D9032047E7A0480838BB
:100BF0000068C0F340000028F1D09D480838006824
:100C000020F0F800216940EAC100994908390860DC
:100C100014E0002097490860FFF758FD054606E0FC
:100C2000FFF754FD401B022801D9032026E7904816
:100C300008380068C0F340000028F1D1207800F0A7
:100C4000080008282CD16069A8B101208A490860F1
:100C5000FFF73CFD054606E0FFF738FD401B022884
:100C600001D903200AE782486C300068C0F34000D5
:100C70000028F1D014E000207F490860FFF726FD2E
:100C8000054606E0FFF722FD401B022801D903209C
:100C9000F4E677486C300068C0F340000028F1D1DA
:100CA000207800F00400042870D100277048383004
:100CB000006800F0805090B900BF002000906C48A0
:100CC0003830006840F08050694938310860084683
:100CD000006800F08050009000BF00BF0127674807
:100CE000006800F48070B0B96448006840F4807017
:100CF00062490860FFF7EAFC054606E0FFF7E6FCFC
:100D0000401B022801D90320B8E65C48006800F4C3
:100D100080700028F2D000BFA068012808D1544894
:100D20006830006840F001005149683108601DE0FA
:100D3000A06805280DD14E486830006840F00400D6
:100D40004B49683108600846006840F001000860BF
:100D50000CE047486830006820F0010044496831E1
:100D600008600846006820F00400086000BFA06822
:100D7000A8B1FFF7ABFC054609E0FFF7A7FC401B55
:100D800041F28831884202D9032077E626E03848CC
:100D900068300068C0F340000028EED013E0FFF791
:100DA00095FC054608E0FFF791FC401B41F28831B5
:100DB000884201D9032061E62D4868300068C0F3FD
:100DC00040000028EFD1012F07D1294838300068B2
:100DD00020F0805026493831086000BFA069002803
:100DE00045D02348006800F00C0008285DD0A069B9
:100DF000022845D100201F490866FFF767FC054619
:100E000006E0FFF763FC401B022801D9032035E60A
:100E1000174808380068C0F340600028F1D1D4E9D1
:100E200007010843616A40EA81110122A06AC2EB0E
:100E3000500041EA00412C20005D41EA00600C496D
:100E4000091F086001200B490866FFF73FFC0546B3
:100E500006E0FFF73BFC401B022801D903200DE60A
:100E6000034808380068C0F340600028F1D03FE034
:100E70000838024000004742800E474200700040A0
:100E800000201C490866FFF721FC054606E0FFF735
:100E90001DFC401B022801D90320EFE5164800681D
:100EA000C0F340600028F2D122E0A069012800D1FF
:100EB000E4E51148001D066806F48001E0698142FE
:100EC00014D106F03F01206A81420FD147F6C0706D
:100ED0003040616A884209D106F44031A06A8142FB
:100EE00004D106F07061E06A814201D00120C5E5BD
:100EF0000020C3E50000474200380240042808D122
:100F00004FF0E021096941F004014FF0E022116146
:100F100007E04FF0E021096921F004014FF0E022E1
:100F20001161704770B504462546681EB0F1807F98
:100F300001D301200FE0681E4FF0E02148610F212E
:100F40004FF0FF3000F0E2F800204FF0E021886120
:100F500007200861002070BD00BFFEE700B587B024
:100F600000BF002001901E48006840F020001C498E
:100F700008600846006800F02000019000BF00BF34
:100F800000BF002001900846006840F02000086083
:100F90000846006800F02000019000BF00BF48151F
:100FA00002900120039004900320059002A90D48AF
:100FB000FFF780FA4FF4806002900320059002A9A9
:100FC0000848FFF777FA012251020648FFF772FB43
:100FD000012291020348FFF76DFB07B000BD00003E
:100FE000303802400014024000BFFEE770477047EF
:100FF000704710B5FFF770FB10BD000010B5044638
:101000000420FFF77BFF0148046010BD10000020A2
:101010002DE9F04192B080460C4615461E46002749
:1010200000BF002000902A48006840F08050284906
:1010300008600846006800F08050009000BF00BFC4
:1010400000BF002000902348006840F48040214900
:1010500008600846006800F48040009000BF00BFB0
:10106000012006900004079002200C9041050D918C
:10107000CDF838800F941095119606A8FFF7FAFC6A
:1010800007460FB100BFFEE70F200190022002903B
:10109000002003904FF4A05004904FF4805005902E
:1010A000052101A8FFF7CCFB07460FB100BFFEE703
:1010B000FFF706FB41F20101884205D106480068AE
:1010C00040F480700449086012B0BDE8F08100006F
:1010D0004038024000700040003C02400548006873
:1010E00040F47000034908604FF000600149803906
:1010F0000860704788ED00E000BFFEE70248006826
:10110000C0F30220704700000CED00E010B500288D
:1011100004DB0A07130E054A135406E00A07140EEF
:10112000034A00F00F031B1FD45410BD00E400E07D
:1011300018ED00E002E008C8121F08C1002AFAD129
:1011400070477047002001E001C1121F002AFBD147
:10115000704710B5044603E04FF47A7000F006F8CB
:10116000201EA4F101018CB2F6D110BD70B503466A
:1011700000224FF0E026B569B1690C4E366803FBDA
:1011800006F410E04FF0E026B06981420BD08142B6
:1011900002D90E1A324402E02E1A0E44324401469D
:1011A000A24200D300E0EDE700BF70BD10000020B8
:1011B000FFF79EFA072302224FF4A8710820FFF7D9
:1011C00027FFA820FFF71AFFFFF79EF8FFF75AF84E
:1011D000FFF7C4FE00BFFEE70000000000000000B3
:1011E00001020304060708090000000001020304CD
:1011F0001012000800000020140000003411000844
:101200002412000814000020040400004411000807
:101210000024F400000000001000000001000000A5
:0412200000000000CA
:040000050800018965
:00000001FF
