:020000040800F2
:10000000B80500209D010008E11E0008A71D00089A
:10001000DD1E000811090008052600080000000088
:10002000000000000000000000000000E51E0008C5
:100030001509000800000000E31E0008E71E000884
:10004000B7010008B7010008B7010008B7010008B0
:10005000B7010008B7010008B7010008B7010008A0
:10006000B7010008B7010008B7010008B701000890
:10007000B7010008B7010008B7010008B701000880
:10008000B7010008B7010008B7010008B701000870
:10009000B7010008B7010008B7010008B701000860
:1000A000B7010008B7010008B7010008B701000850
:1000B000B7010008B7010008B7010008B701000840
:1000C000B7010008B7010008B7010008B701000830
:1000D000B7010008BD250008B7010008B7010008F6
:1000E000B7010008B7010008B7010008B701000810
:1000F000B7010008B7010008B7010008B701000800
:10010000B7010008B7010008B7010008B7010008EF
:10011000B7010008B7010008B7010008B7010008DF
:10012000B7010008B7010008B7010008B7010008CF
:10013000B7010008B7010008B7010008B7010008BF
:10014000B7010008B7010008B7010008B7010008AF
:10015000B7010008B7010008B7010008B70100089F
:10016000B7010008B7010008B7010008B70100088F
:10017000B7010008B7010008B7010008000000003F
:10018000B7010008B7010008DFF80CD000F0FEFA54
:1001900000480047A92F0008B805002006488047FE
:1001A00006480047FEE7FEE7FEE7FEE7FEE7FEE75C
:1001B000FEE7FEE7FEE7FEE7D11F00088901000821
:1001C0002DE9F05F0546002092469B46884606468C
:1001D000814640241BE0284641464746224600F01F
:1001E00025FA53465A46C01A914110D31146184673
:1001F000224600F00CFA2D1A67EB01084F46224602
:100200000120002100F003FA17EB00094E41201EE7
:10021000A4F10104DFDC484631462A464346BDE8E6
:10022000F09F2DE9FE4F804681EA0300C00F0C4687
:10023000009021F0004123F00045B8EB0200A941F5
:1002400005D24046214690461C460B46024623F006
:100250000040104347D0270DC7F30A00C3F30A51EB
:100260000290401A019040286BDAC3F3130040F467
:10027000801B0098924620B10023D2EB030A63EB67
:100280000B0B01985946C0F14002504600F0BFF9EF
:1002900006460D4650465946019A00F0D7F910EB34
:1002A00008006141002487EA115284EAE7731A4387
:1002B00040D0009A62B3019A012A4FEA075215DC36
:1002C000001B61EB02014FF0004202EA0752CDE948
:1002D0000042001C41F5801132462B4600F0D7F950
:1002E00003B0BDE8F08F40462146F9E7001B61EB03
:1002F0000201001C41F5801300185B412018A2F593
:10030000001747EB030140EAD570B6196D4111E0C3
:100310006D084FEA360645EAC0754FEA0752001BE2
:1003200061EB0201001C41F5801149084FEA3000E1
:100330000019514132462B4603B0BDE8F04F00F0A2
:1003400097B90098012240000023D0EB020263EB32
:10035000E073009821464FEAE074B8EB000061EBCF
:100360000401E9E783F000435BE781F0004158E7CF
:100370002DE9FE4F81EA030404F0004421F000411E
:1003800000944FF0000B23F0004350EA01045ED0CC
:1003900052EA03045BD0C3F30A54C1F30A552C4458
:1003A000A4F2F3340194A0FB0254C1F3130141F40D
:1003B0008011C3F3130343F4801301FB024400FBD9
:1003C000034E840A970A44EA815447EA8357A4FB00
:1003D000076802958D0A05FB07854FEA932C04FBFD
:1003E0000C542705029D4FEA065847EA1637B5EB2D
:1003F00008056EEB070C870E920E47EA811742EA5A
:100400008312A7FB0201B6EB0B0164EB00042B0D7A
:1004100043EA0C335E1844EB1C50DA465146E7FBC6
:100420000201C5F313044FEA0B3343EA14534FEAB6
:100430000432019C43EA0603A4F10C040294009CDC
:10044000CDE900B400F023F903B0BDE8F08F00203F
:100450000146F9E72DE9F04D81EA030404F0004B71
:1004600021F0004514464FF0000A23F0004150EA05
:10047000050220D054EA01021DD0C5F30A570246F6
:10048000C5F31303C1F31300C1F30A5640F48015FA
:1004900043F48013A7EB0608101BD64608F2FD387C
:1004A00073EB050002D308F1010801E092185B41EB
:1004B000B8F1000F03DA00200146BDE8F08D0020FE
:1004C0004FF48011064684460EE0171B73EB0507B8
:1004D00005D3121B63EB050306434CEA010C4908E4
:1004E0004FEA300092185B4150EA0107EDD152EA21
:1004F000030012D082EA040083EA0501084305D014
:10050000101BAB4106D20122002306E000224FF06F
:10051000004302E06FF0010253101AEB06004CEBAF
:10052000085110EB0A0041EB0B01BDE8F04D00F063
:100530009FB80EB540F2334102910021CDE9001180
:100540000A460B4600F0A3F803B000BD70B5C1F336
:100550000A5201F000450024C1F3130140F2FF33B9
:1005600041F480119A4201DA002070BD40F2334319
:100570009A42A2F2334203DC524200F057F800E004
:1005800090402C43F1D0404270BDC1F30A5210B5E7
:10059000C1F3130140F2FF3341F480119A4201DAB2
:1005A000002010BD40F233439A42A2F2334203DCF2
:1005B000524200F03BF810BD904010BD00F00042E8
:1005C00030F000400AD0C10D01F56071C0F3160093
:1005D00042EA0151C208400711437047002001461A
:1005E000704730B50B46014600202022012409E067
:1005F00021FA02F59D4205D303FA02F5491B04FADC
:1006000002F52844151EA2F10102F1DC30BD202ABA
:1006100004DB203A00FA02F1002070479140C2F159
:10062000200320FA03F3194390407047202A04DB8B
:10063000203A21FA02F00021704721FA02F3D0405B
:10064000C2F120029140084319467047202A06DB78
:10065000CB17203A41FA02F043EAE07306E041FA90
:1006600002F3D040C2F1200291400843194670477E
:1006700010B5141E73F1000408DA401C41F10001AA
:1006800092185B411A4301D120F0010010BD2DE901
:10069000F04D92469B4611B1B1FA81F202E0B0FAF8
:1006A00080F220329046FFF7B2FF04460F4640EA40
:1006B0000A0041EA0B0153465A46084313D011463B
:1006C00053EA010019D0C8F140025046FFF7AEFFCF
:1006D00005460E46504659464246FFF798FF0843E6
:1006E00005D0012004E020463946BDE8F08D002009
:1006F000054346EAE0762C4337430A986305E40A4B
:10070000A0EB08000022FD0A44EA47540A3002D553
:1007100000200146E9E7010510196941DDE90845B6
:1007200000196941BDE8F04DA2E7C1F30A52C1F3D7
:10073000130140F2FF3341F480119A4202DA0020A3
:100740000146704740F233439A42A2F2334202DC40
:100750005242FFF76BBFFFF75ABF000030B5041ECF
:1007600071F1000404DB4FF00044404264EB0101EE
:10077000141E73F1000405DB1C464FF00043524287
:1007800063EB0403994208BF904230BD064C074D0D
:1007900006E0E06840F0010394E807009847103451
:1007A000AC42F6D3FFF7F4FCB0300008D0300008BC
:1007B00055494A6822F440324A604A6843681A43FD
:1007C0004A600268526822F4807203685A600268C4
:1007D0005368026943EA022203685A600268526859
:1007E00022F0407203685A600268526883681A43B4
:1007F00003685A600268926822F4006203689A6093
:1008000002689268C3681A4303689A603F4B826A21
:100810009A4218D00268926822F0706203689A6067
:1008200002689268836A1A4303689A600268926851
:1008300022F0405203689A6002689268C36A1A43C1
:1008400003689A600BE00268926822F070620368A5
:100850009A600268926822F0405203689A600268C7
:10086000926822F0020203689A6002689368027E2E
:1008700043EA420203689A602022125CA2B1026835
:10088000526842F4006203685A600268526822F4B7
:10089000604203685A6002685368426A521E43EA23
:1008A000423203685A6005E00268526822F400622E
:1008B00003685A600268D26A22F470020368DA623E
:1008C0000268D36A828B521E43EA02520368DA62DC
:1008D0000268926822F4007203689A600268936862
:1008E00090F8302043EA422203689A6002689268D6
:1008F00022F4806203689A6002689368426943EA5E
:10090000822203689A607047002301400100000FB3
:1009100000BFFEE770472DE9F041074688461446C0
:100920000025002600BF09E04146384600F00EF8D9
:100930000544052002F0FDFA701CC6B2A642F3DBA6
:10094000A8B290FBF4F080B2BDE8F0817FB5054617
:100950000C46009401200190072002900020039093
:100960006946284600F06EF8284600F03DFA0A2154
:10097000284600F0D7F9284600F02AF980B204B0E2
:1009800070BD000070B52DED088B00240A221021E7
:100990002148FFF7C0FF00EE100AB8EE400ABCEE97
:1009A000C00A10EE100A84B22046FFF7C2FD41ECE7
:1009B0001A0B9FED1A0B53EC102BFFF7D9FC41ECEF
:1009C000180B9FED180B53EC102B51EC180BFFF785
:1009D000C9FC41EC1B0B9FED150B53EC102BFFF7E3
:1009E00039FD41EC1A0B9FED130B53EC102BFFF765
:1009F00018FC41EC190B9FED110B53EC102B51EC33
:100A0000190BFFF7B5FC41EC1A0BFFF79FFD0546EC
:100A10002846BDEC088B70BD1C000020666666662B
:100A200066664A3F52B81E85EB51E83F7B14AE47DD
:100A3000E17A643F0000000000003940000000003F
:100A40000000594038B502460020009000BF92F8DF
:100A50003C00012801D1022038BD012082F83C0071
:100A600000BF0868092816D91068C0680C780A3CCD
:100A700004EB44050724AC40A0431468E0600C7804
:100A80000A3C04EB44048868A0401468E4682043EE
:100A90001468E06013E0106800690C7804EB44050A
:100AA0000724AC40A043146820610C7804EB440494
:100AB0008868A0401468246920431468206148684D
:100AC000072817D21068406B0C79641E04EB84056C
:100AD0001F24AC40A04314686063088880B20C797E
:100AE000641E04EB8404A0401468646B2043146803
:100AF000606331E048680D2817D21068006B0C79EC
:100B0000E41F04EB84051F24AC40A0431468206359
:100B1000088880B20C79E41F04EB8404A0401468B8
:100B2000246B20431468206316E01068C06A0C79B7
:100B30000D3C04EB84051F24AC40A0431468E06224
:100B4000088880B20C790D3C04EB8404A040146842
:100B5000E46A20431468E062194B1A4C1068A04202
:100B600006D10868122803D1586840F48000586004
:100B7000144C1068A0421CD10868102802D00868E4
:100B8000112816D1586840F40000586008681028F1
:100B90000FD10D4800680D4CB0FBF4F000EB800065
:100BA0004000009002E00098401E0090009800284D
:100BB000F9D100BF002082F83C0000BF00BF4BE726
:100BC00000230140002001400000002040420F00AF
:100BD00001460868C06C704770B5044600250CB922
:100BE000012070BD1549A06A884200D000BF206C6A
:100BF00030B9204600F024F80020606484F83C00FE
:100C0000206C00F0100088B9206C20F4885040F06F
:100C1000020020642046FFF7CBFD00206064206CBA
:100C200020F0020040F00100206400E0012500BF38
:100C3000002084F83C0000BF2846D2E70100000FE6
:100C400010B586B004463249206888422CD100BFD6
:100C5000002000902F48006840F480702D49086003
:100C60000846006800F48070009000BF00BF00BF1D
:100C70000020009027481438006840F00100254902
:100C8000143908600846006800F00100009000BFB9
:100C900000BF20200190032002900020039001A9B2
:100CA0001D4800F053F930E01C49206888422CD1DF
:100CB00000BF002000901748006840F4806015498C
:100CC00008600846006800F48060009000BF00BF24
:100CD00000BF002000900F481438006840F020004A
:100CE0000C49143908600846006800F020000090A4
:100CF00000BF00BF802001900320029000200390DD
:100D000001A9074800F022F900BF06B010BD00009D
:100D1000002001404438024000000240002201400F
:100D20000014024070B504460D4600262068806815
:100D300000F48060B0F5806F11D12068806800F405
:100D40008070B0F5807F0AD1206C40F020002064D4
:100D500000BF002084F83C0000BF012070BD00F0FF
:100D600001FA064612E0681C80B125B100F0FAF9DC
:100D7000801BA8420AD9206C40F00400206400BF08
:100D8000002084F83C0000BF0320E7E720680068EB
:100D900000F002000228E6D16FF01200216808601E
:100DA000206C40F4007020642068806800F040509F
:100DB000B8B9207EA8B92068C06A00F4700020B1DC
:100DC0002068806800F4806058B9206C20F480703E
:100DD0002064206C00F4805018B9206C40F00100B1
:100DE00020640020BAE7000008B50146002000900A
:100DF00000BF91F83C00012801D1022008BD01206C
:100E000081F83C0000BF0868806800F00100A0B9CC
:100E10000868806840F001000B6898603B480068F3
:100E20003B4BB0FBF3F000EB4000009002E0009879
:100E3000401E009000980028F9D10868806800F0F2
:100E4000010000285FD0086C40F20163984340F431
:100E5000807008640868406800F4806028B1086CFD
:100E600020F4005040F480500864086C00F4805076
:100E7000B0F5805F04D1486C20F00600486401E0C2
:100E80000020486400BF002081F83C0000BF214AD8
:100E90006FF022000B681860506800F01F0018BB4C
:100EA0001D4B0868984213D01C4B0868984204D127
:100EB000101D006800F01F0050B1194B08689842DF
:100EC00021D11448001D006800F01F0010281AD21C
:100ED0000868806800F0405028B90868806840F0D1
:100EE00080400B6898600EE00B4B086898420AD16E
:100EF0000868806800F0405028B90868806840F0B1
:100F000080400B689860002078E700000000002017
:100F100040420F0000230140002001400021014019
:100F200000220140014691F83500022803D08020BC
:100F3000486501207047052081F835000868006881
:100F400020F001000A6810600020F3E7F8B50246BF
:100F50000B460025002400200021DCE0012606FAD3
:100F600001F51E6806EA0504AC4273D15E68012EE5
:100F700008D05E68022E05D05E68112E02D05E6831
:100F8000122E13D190684F000326BE40B0434F008D
:100F9000DE68BE4030439060506801268E40B0430A
:100FA0001E79C6F300168E4030435060D0684F0063
:100FB0000326BE40B0434F009E68BE403043D06021
:100FC0005E68022E02D05E68122E13D1CF0802F1A5
:100FD000200656F827004E07F70E0F26BE40B043F6
:100FE0004F07FF0E1E69BE403043CF0802F12006B6
:100FF00046F8270010684F000326BE40B0431E7914
:1010000006F003064F00BE40304310605E6806F0F5
:101010008056B6F1805F7DD100BF00260096404E1D
:10102000366846F480463E4F3E603E46366806F4DB
:101030008046009600BF00BF3A4E8F0856F8270042
:101040008E07370F0F26BE40B043374EB24202D153
:10105000002624E05EE0354EB24201D101261EE0BA
:10106000334EB24201D1022619E0324EB24201D1D2
:10107000032614E0304EB24201D104260FE02F4E79
:10108000B24201D105260AE02D4EB24201D1062618
:1010900005E02C4EB24201D1072600E008268F075A
:1010A0003F0FBE4030431F4E8F0846F82700264EA4
:1010B0003068A0435E6806F48036B6F5803F00D104
:1010C0002043214E3060361D3068A0435E6806F430
:1010D0000036B6F5003F00D120431B4E361D306070
:1010E000361D3068A0435E6806F48016B6F5801F92
:1010F00000D12043144E08363060361D3068A043BE
:101100005E6806F40016B6F5001F00D120430E4EAF
:101110000C363060491C1029FFF420AFF8BD0000E8
:1011200044380240083801400000024000040240F8
:1011300000080240000C024000100240001402406F
:1011400000180240001C0240003C01400AB18161CD
:1011500001E00B048361704701480068000C704790
:10116000002004E0014800687047000004000020EF
:10117000034800680349097808440149086070473A
:10118000040000200C00002010B50D48006840F459
:1011900000700B4908600846006840F480600860F1
:1011A0000846006840F480700860052000F080F870
:1011B0000F2000F007F800F02BF8002010BD000011
:1011C000003C024070B504460E4800784FF47A7136
:1011D000B1FBF0F00C490968B1FBF0F5284600F0CE
:1011E00013FC08B1012070BD102C07D2002221464B
:1011F000501E00F01EF80548046001E00120F2E7EF
:101200000020F0E70C000020000000200800002073
:10121000704701460846002809DB00F01F03012241
:101220009A4043099B0003F1E023C3F8002100BF6B
:1012300070472DE9F05F80460D461646002701F005
:10124000F3F9074639462A46334601F00700C0F154
:10125000070ABAF1040F02D94FF0040A01E0C0F105
:10126000070AD14600F1040ABAF1070F02D24FF083
:10127000000A01E0A0F1030AD4464FF0010A0AFA7D
:1012800009FAAAF1010A0AEA020A0AFA0CFA4FF06C
:10129000010B0BFA0CFBABF1010B0BEA030B4AEA57
:1012A0000B042146404601F0C7F9BDE8F09F00005D
:1012B00000BF00F00702064B19684FF6FF03194004
:1012C000044B0B4343EA0221014B196000BF7047F6
:1012D0000CED00E00000FA0570B504460D460CB9AF
:1012E000012070BD5848006800F00F00A84209D2E4
:1012F00055490D700846006800F00F00A84201D063
:101300000120EEE7207800F0020002281DD12078AD
:1013100000F00400042805D14C48006840F4E05077
:101320004A490860207800F00800082805D147489D
:10133000006840F46040454908604448006820F077
:10134000F000A168084341490860207800F00100DE
:10135000A8B36068012807D13C4808380068C0F38A
:101360004040B8B90120BCE76068022802D060683C
:10137000032807D1354808380068C0F3406048B9F1
:101380000120AEE7314808380068C0F3400008B9D2
:101390000120A6E72D48006820F00300616808439B
:1013A0002A490860FFF7DEFE064609E0FFF7DAFE8D
:1013B000801B41F28831884202D9032091E707E07F
:1013C0002248006800F00C006168B0EB810FEDD19D
:1013D0001D48006800F00F00A84209D91A490D7095
:1013E0000846006800F00F00A84201D0012078E70D
:1013F000207800F00400042807D11448006820F485
:10140000E050E168084311490860207800F00800C6
:10141000082808D10D48006820F46040216940EA9E
:10142000C1000A49086000F03FF808490968C1F3A3
:101430000311074A515CC840064908600648006825
:10144000FFF7C0FE00204CE7003C02400838024095
:1014500098300008000000200800002001480068C3
:10146000704700000000002000B5FFF7F7FF0449B7
:101470000968C1F38221034A515CC84000BD0000E5
:1014800008380240A830000800B5FFF7E7FF04491C
:101490000968C1F34231034A515CC84000BD0000F5
:1014A00008380240A83000082DE9F0470024002544
:1014B0000026A1462548006800F00C0020B1042851
:1014C00005D008283AD105E0DFF8849039E0DFF84C
:1014D000849036E01D48001F006800F03F041B4860
:1014E000001F006800F4800078B11A481749091FEE
:1014F0000968C1F38811A0FB017001462246002350
:101500003846FEF75DFE05460EE011480F49091FFB
:101510000968C1F38811A0FB01700146224600232F
:101520003846FEF74DFE05460848001F0068C0F328
:101530000140401C4600B5FBF6F902E0DFF81090D0
:1015400000BF00BF4846BDE8F087000008380240F1
:101550000024F40000127A00F8B504460CB901200A
:10156000F8BD207800F00100002874D0F948006828
:1015700000F00C0004280DD0F648006800F00C00C4
:10158000082813D1F348001F006800F48000B0F56C
:10159000800F0BD1EF4808380068C0F340400028A6
:1015A00059D06068002856D10120D9E700BF606893
:1015B000B0F5803F08D1E7480838006840F4803033
:1015C000E449083908601EE06068B0F5A02F0DD12D
:1015D000E0480838006840F48020DE490839086097
:1015E0000846006840F4803008600CE0D9480838AC
:1015F000006820F48030D749083908600846006840
:1016000020F48020086000BF606890B1FFF7AAFD59
:10161000054606E0FFF7A6FD401B642801D903201C
:101620009EE7CC4808380068C0F340400028F1D05D
:1016300011E0FFF797FD054606E0FFF793FD401B1D
:10164000642801D903208BE7C24808380068C0F33A
:1016500040400028F1D1207800F0020002285FD13C
:10166000BC48006800F00C0058B1BA48006800F0AF
:101670000C0008281CD1B748001F006800F4800047
:10168000B0B9B44808380068C0F3400020B1E06841
:10169000012801D0012063E7AE480838006820F037
:1016A000F800216940EAC100AA490839086037E01A
:1016B000E06800B30120A8490860FFF753FD054624
:1016C00006E0FFF74FFD401B022801D9032047E742
:1016D000A04808380068C0F340000028F1D09D48B9
:1016E0000838006820F0F800216940EAC1009949F3
:1016F0000839086014E0002097490860FFF732FDC0
:10170000054606E0FFF72EFD401B022801D9032005
:1017100026E7904808380068C0F340000028F1D15F
:10172000207800F0080008282CD16069A8B10120B9
:101730008A490860FFF716FD054606E0FFF712FD2F
:10174000401B022801D903200AE782486C30006858
:10175000C0F340000028F1D014E000207F49086069
:10176000FFF700FD054606E0FFF7FCFC401B0228E2
:1017700001D90320F4E677486C300068C0F34000DC
:101780000028F1D1207800F00400042870D100274F
:1017900070483830006800F0805090B900BF0020D9
:1017A00000906C483830006840F08050694938310A
:1017B00008600846006800F08050009000BF00BF3D
:1017C00001276748006800F48070B0B96448006879
:1017D00040F4807062490860FFF7C4FC054606E0EB
:1017E000FFF7C0FC401B022801D90320B8E65C4883
:1017F000006800F480700028F2D000BFA0680128C3
:1018000008D154486830006840F0010051496831FF
:1018100008601DE0A06805280DD14E4868300068BA
:1018200040F004004B49683108600846006840F009
:10183000010008600CE047486830006820F00100B3
:101840004449683108600846006820F004000860D8
:1018500000BFA068A8B1FFF785FC054609E0FFF7C7
:1018600081FC401B41F28831884202D9032077E68F
:1018700026E0384868300068C0F340000028EED009
:1018800013E0FFF76FFC054608E0FFF76BFC401B19
:1018900041F28831884201D9032061E62D48683041
:1018A0000068C0F340000028EFD1012F07D129487C
:1018B0003830006820F0805026493831086000BF79
:1018C000A069002845D02348006800F00C000828D3
:1018D0005DD0A069022845D100201F490866FFF7A6
:1018E00041FC054606E0FFF73DFC401B022801D9FC
:1018F000032035E6174808380068C0F34060002828
:10190000F1D1D4E907010843616A40EA811101225B
:10191000A06AC2EB500041EA00412C20005D41EA80
:1019200000600C49091F086001200B490866FFF799
:1019300019FC054606E0FFF715FC401B022801D9FB
:1019400003200DE6034808380068C0F34060002813
:10195000F1D03FE00838024000004742800E474285
:101960000070004000201C490866FFF7FBFB05469D
:1019700006E0FFF7F7FB401B022801D90320EFE543
:1019800016480068C0F340600028F2D122E0A06948
:10199000012800D1E4E51148001D066806F4800125
:1019A000E069814214D106F03F01206A81420FD1E3
:1019B00047F6C0703040616A884209D106F4403170
:1019C000A06A814204D106F07061E06A814201D0D0
:1019D0000120C5E50020C3E5000047420038024071
:1019E000042808D14FF0E021096941F004014FF0CB
:1019F000E022116107E04FF0E021096921F00401C4
:101A00004FF0E0221161704770B504462546681E0C
:101A1000B0F1807F01D301200FE0681E4FF0E0217C
:101A200048610F214FF0FF3000F006FE00204FF01C
:101A3000E021886107200861002070BD70470146E1
:101A40000022002391F8392091F83A3042EA03004D
:101A5000704700002DE9F0470446206805682068BB
:101A6000C668206847694FF00008C14605F00F08B6
:101A7000B8F1000F0AD105F0200038B106F02000BF
:101A800020B1204600F01EFBBDE8F087B8F1000F42
:101A900072D007F0010018B906F4907000286BD0DE
:101AA00005F0010030B106F4807018B1E06B40F031
:101AB0000100E06305F0040030B107F0010018B147
:101AC000E06B40F00200E06305F0020030B107F087
:101AD000010018B1E06B40F00400E06305F008007D
:101AE00048B106F0200010B907F0010018B1E06B12
:101AF00040F00800E063E06B70B305F0200028B10F
:101B000006F0200010B1204600F0DCFA20684069A1
:101B1000C0F38019E06B00F0080010B9B9F1000FB4
:101B200023D0204600F0AEFA2068406900F0400063
:101B3000402816D12068406920F0400021684861A3
:101B4000606B50B11748616B0865606BFFF7EAF98D
:101B500010B1606B016D88470CE02046FFF76EFF07
:101B600008E02046FFF76AFF04E02046FFF766FF23
:101B70000020E06388E7FFE705F0800030B106F061
:101B8000800018B1204600F0E5FC7DE705F040003C
:101B900030B106F0400018B1204600F083FA73E738
:101BA00000BF71E77120000810B504460CB9012090
:101BB00010BDA06900B100E000BF94F8390028B959
:101BC000002084F83800204600F028F8242084F80B
:101BD00039002068C06820F400502168C8602046A1
:101BE00000F0C4FA2068006920F490402168086180
:101BF0002068406920F02A00216848612068C06898
:101C000040F400502168C8600020E063202084F880
:101C1000390084F83A000020CAE7000010B586B009
:101C200004461F492068884238D100BF0020009038
:101C30001C48006840F001001A4908600846006826
:101C400000F00100009000BF00BF00BF0020009026
:101C500014481430006840F0100012491431086034
:101C60000846006800F01000009000BF00BF4FF46D
:101C7000C060019002200290012003900220049095
:101C80000720059001A90848FFF760F92520FFF714
:101C9000C0FA032211462520FFF7CBFA06B010BD8B
:101CA00000100140303802400000024010B50346E9
:101CB00093F83A0020282FD101B10AB9012010BDB4
:101CC00000BF93F83800012801D10220F7E7012076
:101CD00083F8380000BF99629A85DA850020D863BE
:101CE000222083F83A0000BF002083F8380000BFAC
:101CF0001868C06840F480701C68E060186840692B
:101D000040F001001C6860611868C06840F0200065
:101D10001C68E0600020D2E70220D0E71D4A01687D
:101D2000914236D11C49098801F4004189BB1A4906
:101D3000098801F4804171B1184909780A2903D052
:101D40000021154A118024E01349098841F400411B
:101D5000114A11801DE0114909780D2906D10E495B
:101D6000098841F480410C4A118012E00B4909783E
:101D7000094A1288C2F30D02094B99540649098891
:101D8000491C054A118011460988C72901DD002137
:101D90001180704700100140160000201400002040
:101DA000EC000020704700BFFEE7000000B587B0E0
:101DB00000BF002001901E48006840F020001C4930
:101DC00008600846006800F02000019000BF00BFD6
:101DD00000BF002001900846006840F02000086025
:101DE0000846006800F02000019000BF00BF4815C1
:101DF00002900120039004900320059002A90D4851
:101E0000FFF7A4F84FF4806002900320059002A928
:101E10000848FFF79BF8012251020648FFF796F9A0
:101E2000012291020348FFF791F907B000BD0000BD
:101E3000303802400014024070B52DED028B0024B2
:101E40000A2205211148FEF766FD00EE100AB8EEE1
:101E5000400ABCEEC00A10EE100A84B2B4F57A6FE4
:101E600001DD4FF47A64282094FBF0F0C0F16400A7
:101E7000C5B22846FEF75DFB41EC180B51EC180B80
:101E8000FEF783FBC0B2BDEC028B70BD6400002086
:101E900010B50F480F4908604FF4803048600021AA
:101EA0000C488160C1600161416101760121C1611D
:101EB000002180F820104162074981620021C1623F
:101EC00080F83010FEF788FE0248FEF78DFF10BD47
:101ED00000220140640000200100000F00BFFEE767
:101EE00070477047704710B5FFF742F910BD00000A
:101EF00010B504460420FFF773FD0148046010BDCF
:101F0000100000202DE9F04192B080460C461546A5
:101F10001E46002700BF002000902A48006840F0BD
:101F20008050284908600846006800F08050009002
:101F300000BF00BF00BF002000902348006840F4AD
:101F40008040214908600846006800F48040009005
:101F500000BF00BF012006900004079002200C90F3
:101F600041050D91CDF838800F941095119606A873
:101F7000FFF7F2FA07460FB100BFFEE70F2001900E
:101F800002200290002003904FF4A05004904FF4E0
:101F900080500590052101A8FFF79EF907460FB173
:101FA00000BFFEE7FFF7D8F841F20101884205D1F2
:101FB0000648006840F480700449086012B0BDE82B
:101FC000F08100004038024000700040003C0240B8
:101FD0000548006840F47000034908604FF0006055
:101FE000014980390860704788ED00E010B50F485E
:101FF0000F4908604FF48030486000210C48816030
:10200000C1600161416101760121C161002180F857
:1020100020104162074981620021C16280F83010BE
:10202000FEF7DAFD0248FEF7DFFE10BD002001409A
:102030001C0000200100000F10B5044609480A49A1
:1020400008600846446000218160C16001618161CF
:102050000C214161FFF7A8FD012204490248FFF766
:1020600025FE10BD00100140AC000020140000202F
:1020700070B50546AC6B0020E085E0842046FFF794
:10208000DDFC70BD0168C96821F490710268D160FF
:102090000168496921F0010102685161202180F83D
:1020A0003A10704710B504462068C06820F0400020
:1020B0002168C860202084F839002046FFF772FEAE
:1020C000002010BD70B5044694F83A0022284AD189
:1020D000A068B0F5805F13D1A56A206940B9206877
:1020E0004068C0F308002880A06A801CA06219E044
:1020F00020684068C0B22880A06A401CA06211E03D
:10210000206938B920684068C1B2A26A501CA06238
:10211000117007E02068406800F07F01A26A501C3F
:10212000A0621170E08D401E80B2E085C8B92068C1
:10213000C06820F020002168C8602068C06820F4D2
:1021400080702168C8602068406920F00100216823
:102150004861202084F83A002046FFF7DFFD002088
:1021600070BD0020FCE70220FAE700002DE9F84FDF
:1021700004462068006920F44050E1680843216863
:1021800008612169A068084361690843E16908435F
:1021900000902068C06849F20C61884300990843A8
:1021A0002168C8602068406920F44070A169084334
:1021B00021684861E069B0F5004F75D1E3492068B6
:1021C000884203D0E249206888426FD1FFF75CF96A
:1021D000814602206168A0FB01510B461920A9FB32
:1021E00000712A463846FDF7EBFF6421B0FBF1F0A1
:1021F0004FEA001A02206168A0FB01510B4619202A
:10220000A9FB00712A463846FDF7DAFF074602208F
:102210006168A0FB01510B461920A9FB00B12A46B9
:102220005846FDF7CDFF6421B0FBF1F000EBC00193
:1022300001EB0010A7EB8000322101EBC00064210C
:10224000B0FBF1F000F0F8000AEB400A02206168F0
:10225000A0FB01510B461920A9FB00712A46384604
:10226000FDF7AEFF074602206168A0FB01510B4657
:102270001920A9FB00B12A465846FDF7A1FF6421A9
:10228000B0FBF1F000EBC00101EB0010A7EB800008
:10229000322101EBC0006421B0FBF1F000F0070037
:1022A0005044216888604FE16EE0FFE7FFF7DCF8FB
:1022B000814602206168A0FB01510B461920A9FB51
:1022C00000712A463846FDF77BFF6421B0FBF1F030
:1022D0004FEA001A02206168A0FB01510B46192049
:1022E000A9FB00712A463846FDF76AFF074602201F
:1022F0006168A0FB01510B461920A9FB00B12A46D9
:102300005846FDF75DFF6421B0FBF1F000EBC00122
:1023100001EB0010A7EB8000322101EBC00064212B
:10232000B0FBF1F000F0F8000AEB400A022061680F
:10233000A0FB01510B461920A9FB00712A46384623
:10234000FDF73EFF074602206168A0FB01500346EF
:102350001920A9FB00B12A465846FDF731FF642138
:10236000B0FBF1F000EBC00101EB0010A7EB800027
:10237000322101EBC0006421B0FBF1F000F0070056
:10238000504421688860DFE070492068884203D0AB
:102390006F49206888426BD1FFF776F881460420A8
:1023A0006168A0FB01510B461920A9FB00712A4668
:1023B0003846FDF705FF824604206168A0FB015105
:1023C0000B461920A9FB00712A463846FDF7F8FE96
:1023D0006421B0FBF1F000EBC00101EB0010AAEBAF
:1023E0008000322101EB00106421B0FBF1F000F01D
:1023F000F00A04206168A0FB015003461920A9FBE4
:1024000000712A463846FDF7DBFE6421B0FBF1F08F
:102410000AEB001A04206168A0FB01510B46192049
:10242000A9FB00712A463846FDF7CAFE074604207C
:102430006168A0FB015003461920A9FB00B12A46A0
:102440005846FDF7BDFE6421B0FBF1F000EBC00182
:1024500001EB0010A7EB8000322101EB001064219A
:10246000B0FBF1F000F00F005044216888606BE091
:10247000FEF7FAFF814604206168A0FB0150034685
:102480001920A9FB00712A463846FDF799FE8246BD
:1024900004206168A0FB015003461920A9FB0071CC
:1024A0002A463846FDF78CFE6421B0FBF1F000EBC4
:1024B000C00101EB0010AAEB8000322101EB0010FB
:1024C0006421B0FBF1F000F0F00A04206168A0FB89
:1024D000015003461920A9FB00712A463846FDF732
:1024E0006FFE6421B0FBF1F00AEB001A0420616872
:1024F000A0FB017003461920A9FB005001463A4693
:102500002846FDF75DFE074604206168A0FB0150E8
:1025100003461920A9FB00B12A465846FDF750FE94
:102520006421B0FBF1F000EBC00101EB0010A7EB60
:102530008000322101EB00106421B0FBF1F000F0CB
:102540000F00504421688860BDE8F88F00100140FA
:1025500000140140014691F8390021282CD18868E7
:10256000B0F5805F0FD10A6A1088C0F308000B68CD
:102570005860086918B9086A801C086209E0086A8E
:10258000401C086205E00B6A581C086218780B684A
:102590005860C88C401E80B2C88458B90868C068AA
:1025A00020F080000B68D8600868C06840F04000E8
:1025B0000B68D860002070470220FCE710B50024AB
:1025C0000E48FFF747FA00BF03E0641C601C00B927
:1025D00004E00A48FFF733FA2028F6D100BF0024B0
:1025E00003E0641C601C00B906E0012204490348B2
:1025F000FFF75CFB0028F4D100BF10BDAC00002049
:102600001400002000BFFEE70FB4054B10B503A96E
:10261000044A029800F0F6F810BC5DF814FB0000C4
:10262000912F00081800002002480068C0F3022023
:10263000704700000CED00E010B5002804DB0A072D
:10264000130E054A135406E00A07140E034A00F05D
:102650000F031B1FD45410BD00E400E018ED00E090
:1026600002E008C8121F08C1002AFAD1704770475B
:10267000002001E001C1121F002AFBD170470000B9
:102680002DE9FF5F82B00021DDE90430020DDDF8A5
:1026900040B0034318D044F61050A2F2FF32424338
:1026A0001514119801281FD0A5EB0B00401C5FEA00
:1026B000000A4FF000064E4FDFF83891B046504602
:1026C00015D5CAF1000413E0119801244AA301288A
:1026D00001D16FEA0B010298119AC0E90031C0E9FB
:1026E000024206B0BDE8F09FCBF10000DFE70446F0
:1026F0000021404A491842EB0450CDE9001012E095
:10270000E00707D032463B4640464946FDF730FEDB
:102710008046894632463B4610461946FDF728FE5C
:1027200006460F466410002CEAD1DDE90401DDE91C
:102730000023BAF1000F06DAFDF71AFE42464B46B7
:10274000FDF716FE05E0FDF785FE42464B46FDF718
:1027500081FE04460E460022284BFDF7FFFF03D8FA
:102760004FF0FF30014607E00022254B204631465E
:10277000FDF757FDFDF7D9FF102409E0002C0ADB17
:102780000A220023FDF71CFD039B30321A55641EFC
:1027900050EA0102F2D1641C039AC4F111031444FB
:1027A000119A012A03D0012208430DD10AE00843FF
:1027B00004D000204FF0110B119072E7A3EB0B0532
:1027C0006D1E0DE05B4504DD4FF0000205F10105D3
:1027D00004E003DA4FF00002A5F10105002AECD075
:1027E00002981199C0E90231C0E9004579E700007B
:1027F000000014400000F03F300000000000F043F3
:102800000000E03F2DE9FF4F95B09B468946064604
:1028100000250FE2252877D100242746F84A012118
:10282000059400E0044316F8013F203B01FA03F051
:102830001042F7D130782A2811D06FF02F0330786A
:10284000A0F13002092A16D8059A44F0020402EBDE
:10285000820203EB42021044761C0590EFE759F820
:10286000042B0592002A03DA504244F400540590E8
:1028700044F00204761C30782E2816D116F8010F89
:1028800044F004042A280DD06FF02F023078A0F114
:102890003003092B09D807EB870302EB4303C71862
:1028A000761CF3E759F8047B761C30786C280FD03F
:1028B00006DC4C2817D068280DD06A2814D104E013
:1028C000742810D07A280FD10DE044F400140AE0E7
:1028D00044F4801401E044F440147278824202D13E
:1028E00004F58014761C761C307866280BD013DC37
:1028F000582877D009DC002875D04528F6D046281E
:10290000F4D047281AD19DE118E0632835D0642817
:1029100079D0652812D195E1702873D008DC67283A
:10292000F1D069286FD06E280DD06F2806D1B5E0A0
:1029300073282CD0752875D0782874D05A461799EA
:1029400090476D1C75E1C4F30250022809D003289A
:102950000DD0D9F8001004280DD00D6009F104093C
:1029600067E1D9F80010EA17C1E90052F6E7D9F893
:1029700000100D80F2E70D70F0E719F8041B8DF8D8
:10298000001000208DF80100EA46012003E059F80C
:1029900004AB4FF0FF3061074FF0000102D40DE0AF
:1029A00008F101018846B9420FDA8045F8DB1AF8D0
:1029B00008100029F4D108E008F10101884681429D
:1029C000FADB1AF808100029F6D105985B46A0EB4F
:1029D000080721463846179A00F094FA284400EB7D
:1029E000080507E04DE029E10DE01AF8010B5A4611
:1029F00017999047B8F10108F7D25B46214638464F
:102A0000179A13E142E00A220092C4F302524FF0F7
:102A1000000A022A08D059F804CB032A4FEAEC71C5
:102A20000AD00DE029E02AE009F1070121F00702B0
:102A3000F2E802C1914609E00FFA8CFC4FEAEC7112
:102A4000042A03D14FFA8CFC4FEAEC71002907DA13
:102A50000A460021DCF1000C61EB02012D2202E0AC
:102A6000220504D52B228DF80420012203E0E20781
:102A700001D02022F7E7904659E00A2102E0102217
:102A80000DE010214FF0000A00910BE010224FF0F2
:102A9000000A44F004040827009203E008224FF0E3
:102AA000000A0092C4F30252022A05D059F804CB5E
:102AB0000021032A08D009E009F1070121F00702EB
:102AC000F2E802C1914605E01FFA8CFC042A01D10C
:102AD0000CF0FF0C4FF00008220728D5702806D014
:102AE000009B83F0100353EA0A0305D00EE0402256
:102AF0008DF80420012208E05CEA010206D03022B1
:102B00008DF804208DF8050002229046009B83F08A
:102B1000080353EA0A030AD15CEA010201D1620701
:102B200005D530228DF804204FF001087F1E58286B
:102B300004D034A003900EA802900DE036A0F9E76F
:102B400053466046009AFDF73BFB84460398825C3F
:102B50000298401E029002705CEA0100F0D10298D7
:102B600006A9081A00F1200A600702D524F480346F
:102B700000E00127574502DDA7EB0A0000E0002036
:102B800000EB0A01009005984144401A0590E003CB
:102B900006D45B462146179A059800F0B3F9054420
:102BA000002706E001A85A46C05D179990476D1CA2
:102BB0007F1C4745F6DBE0030CD55B462146179AA0
:102BC000059800F09FF9054404E030205A46179913
:102BD00090476D1C0099481E00900029F5DC08E024
:102BE000029802995A460078491C02911799904719
:102BF0006D1CBAF10001AAF1010AF1DC65E10000E7
:102C000009280100303132333435363738396162C2
:102C10006364656600000000303132333435363786
:102C200038394142434445460000000000F058F95D
:102C30000544761C307800287FF4ECAD19B02846A6
:102C4000BDE8F08F620700D4062709F1070222F0E1
:102C5000070CFCE80223E14603F000485FEA080C99
:102C600002D00FF2702C0DE05FEA045C02D50FF287
:102C7000682C07E05FEAC47C02D00FF2602C01E010
:102C8000AFF2700C4FF0FF3823F00043CDF850C086
:102C900065280CD006DC452809D046281DD04728D9
:102CA0003DD13DE0662818D067287ED138E000216C
:102CB000112F01DB112000E0781CCDE9000106A9ED
:102CC0000EA8FFF7DDFCDDE90F010E9A039100214C
:102CD000009207F1010A04914DE04FF00040009787
:102CE000CDE9011006A90EA8FFF7CAFCDDE90F0225
:102CF00003920E9B11990022DDF80CA00093049220
:102D000011B9791C00EB010AB7EB0A0004D4C0F139
:102D1000FF3007F1010A0490AAEB0700019044E09C
:102D2000012F00DA01270021112F01DD112000E021
:102D30003846CDE9000106A90EA8FFF7A1FCDDE9A0
:102D40000F010E9A0391002104910092BA462107C7
:102D50000CD40399514500DA8A46BAF1010F05DD1A
:102D6000009AAAF10101515C302908D0B84202DA78
:102D700010F1040F06DA0121CDE9011015E0AAF1E6
:102D80000101E9E7002805DC049901440491AAEB5C
:102D9000000102E0411C514500DD8A460499401AB9
:102DA000401C01904FF000400290200704D401988D
:102DB000504501DBCDF8048000208DF84F000298CB
:102DC0000DF14F07B0F1004F25D02B200E90029847
:102DD0004FF0020800280CDA404202902D200E909D
:102DE00007E00A210298FDF7FCFB3031029007F85A
:102DF000011DB8F10001A8F10108F2DC02980028D9
:102E0000EFD1791E0E980870307800F0200040F065
:102E1000450007F8020D12A8C01B00F1070814981E
:102E2000007800B1012000EB0A01019801EBE0718C
:102E300005984144401A401E0590E00306D45B46C5
:102E40002146179A059800F05DF80544149800781B
:102E500018B15A46179990476D1CE00324D55B467C
:102E60002146179A059800F04DF805441CE0049897
:102E7000002807DBDDE90301884203DD0098405CA0
:102E8000179901E0179930205A469047049805F1A8
:102E90000105401C04900198401E019004D12E2091
:102EA0005A46179990476D1CBAF10001AAF1010A20
:102EB000DDDC05E017F8010B5A46179990476D1CA9
:102EC000B8F10001A8F10108F4DC5B462146179A2D
:102ED0000598ABE62D0000002B000000200000004C
:102EE0002DE9F041044600251E461746880404D407
:102EF00005E039462020B0476D1C641EF9D52846F0
:102F0000BDE8F0812DE9F041044600251E469046BB
:102F1000C80301D5302700E02027880404D505E048
:102F200041463846B0476D1C641EF9D52846BDE8B9
:102F3000F08110B5044603E04FF47A7000F006F813
:102F4000201EA4F101018CB2F6D110BD70B503466C
:102F500000224FF0E026B569B1690C4E366803FBDC
:102F600006F410E04FF0E026B06981420BD08142B8
:102F700002D90E1A324402E02E1A0E44324401469F
:102F8000A24200D300E0EDE700BF70BD10000020BA
:102F900000BF044A126802F04002002AF9D0014A38
:102FA00050607047001001402DED028B0024002579
:102FB0000026FEF7E9F8072302224FF4A871082043
:102FC000FEF7A0FFA820FEF793FFFEF7EFFE4FF4F9
:102FD000E130FFF731F8FEF75BFFFFF707F81DA0C0
:102FE000FFF712FB35E0601CC4B2142094FBF0F133
:102FF00000FB114038B91B48006808B9012000E007
:103000000020184908601420FFF793FF322094FB3A
:10301000F0F100FB1140E0B9FEF70EFF0646FDF7A8
:10302000B1FC0546314610A0FFF7EEFA642095FB8F
:10303000F0F000EE100AB8EEC00A10EE107A384632
:10304000FDF7BCFA41EC180B53EC182B0BA0FFF763
:10305000DBFAC8E7C4DAB2BFCEC2B6C8CAB5D1E996
:103060000D0A0000A4824242BCECB2E2B9E2D5D51E
:10307000C7BFB6C8CEAA3A25640D0A00BCECB2E2BE
:10308000C4DAB2BFCEC2B6C8CEAA3A252E3266A1E5
:10309000E3430D0A000000000000000000000000F3
:1030A00001020304060708090000000001020304EE
:1030B000D0300008000000201C000000602600083E
:1030C000EC3000081C0000209C0500007026000861
:1030D0000024F400000000001000000001000000C7
:0C30E000000000000000000000000000E4
:040000050800018965
:00000001FF
