:020000040800F2
:10000000000400209D010008A5010008A7010008C8
:10001000A9010008AB010008AD01000800000000C4
:10002000000000000000000000000000AF01000818
:10003000B101000800000000B3010008B50100088C
:10004000B7010008B7010008B7010008B7010008B0
:10005000B7010008B7010008B7010008B7010008A0
:10006000B7010008B7010008B7010008B701000890
:10007000B7010008B7010008B7010008B701000880
:10008000B7010008B7010008B7010008B701000870
:10009000B7010008B7010008B7010008B701000860
:1000A000B7010008B7010008B7010008B701000850
:1000B000B7010008B7010008B7010008B701000840
:1000C000B7010008B7010008B7010008B701000830
:1000D000B7010008B7010008B7010008B701000820
:1000E000B7010008B7010008B7010008B701000810
:1000F000B7010008B7010008B7010008B701000800
:10010000B7010008B7010008B7010008B7010008EF
:10011000B7010008B7010008B7010008B7010008DF
:10012000B7010008B7010008B7010008B7010008CF
:10013000B7010008B7010008B7010008B7010008BF
:10014000B7010008B7010008B7010008B7010008AF
:10015000B7010008B7010008B7010008B70100089F
:10016000B7010008B7010008B7010008B70100088F
:10017000B7010008B7010008B7010008B70100087F
:10018000B7010008B7010008DFF80CD000F018F83C
:10019000004800471102000800040020064880477C
:1001A00006480047FEE7FEE7FEE7FEE7FEE7FEE75C
:1001B000FEE7FEE7FEE7FEE7E5010008890100082B
:1001C000064C074D06E0E06840F0010394E80700A4
:1001D00098471034AC42F6D3FFF7DAFF84020008E8
:1001E00094020008704702E008C8121F08C1002AE4
:1001F000FAD170477047002001E001C1121F002AA8
:10020000FBD1704700BF011EA0F10100FBD1704778
:100210001948006840F02000174908601748006836
:1002200040F48020154908600846006840F48010BA
:1002300008601FE011481830006840F000700F4956
:10024000183108600846006840F4806008600C4877
:10025000FFF7D8FF09481830006840F08060074970
:10026000183108600846006840F4007008600448CF
:10027000FFF7C8FFDEE700003038024000140240FC
:10028000FFFF0F009402000800000020000400009F
:04029000F60100086B
:040000050800018965
:00000001FF
